:020000040800F2
:1000000040510020610200085D02010869F100080A
:1000100059020108C90F000859230108730200089A
:100020000000000000000000000000006D0D01084D
:100030004D30000800000000310301085D10010888
:100040007D0200087D0200087D0200087D02000894
:100050007D0200087D0200087D0200087D02000884
:100060007D0200087D0200087D0200087D02000874
:100070007D0200087D0200087D0200081D3A00088C
:100080007D0200087D0200087D0200087D02000854
:100090007D0200087D0200087D0200087D02000844
:1000A0007D0200087D0200087D0200087D02000834
:1000B0007D020008893C00087D0200087D020008DE
:1000C0007D0200087D0200087D0200087D02000814
:1000D000000000007D0200087D020008313A00089F
:1000E000413A00087D0200087D0200087D020008F8
:1000F0007D0200087D0200087D0200087D020008E4
:100100007D0200087D020008DD1501087D0200085F
:100110007D0200087D0200087D0200087D020008C3
:100120007D0200087D020008BD2201087D02000852
:100130007D0200087D0200087D0200087D020008A3
:100140007D0200087D0200087D0200087D02000893
:100150007D0200087D0200087D0200087D02000883
:100160007D0200087D0200087D0200087D02000873
:100170007D0200087D0200087D0200087D02000863
:100180007D0200087D0200087D0200087D02000853
:100190007D0200087D0200087D0200087D02000843
:1001A0007D0200087D0200087D0200087D02000833
:1001B0007D0200087D0200087D0200087D02000823
:1001C0007D0200087D0200087D0200087D02000813
:1001D0007D0200087D0200087D0200087D02000803
:1001E0007D0200087D0200087D0200087D020008F3
:1001F0007D0200087D0200087D0200087D020008E3
:100200007D0200087D0200087D0200080000000059
:10021000000000007D020008000000007D020008D0
:100220007D0200087D0200087D0200087D020008B2
:100230007D0200087D0200087D0200087D020008A2
:100240007D0200087D0200087D020008DFF80CD066
:1002500000F0A6F800480047912F01084051002007
:100260000748804707480047FEE7FEE7FEE7FEE74E
:10027000FEE7FEE7FEE7FEE7FEE7FEE7FEE700003B
:10028000A51401084D0200082DE9F05F0546002085
:1002900092469B4688460646814640241BE02846F7
:1002A00041464746224600F068F853465A46C01A6F
:1002B000914110D311461846224600F04FF82D1AEE
:1002C00067EB01084F4622460120002100F046F866
:1002D00017EB00094E41201EA4F10104DFDC484663
:1002E00031462A464346BDE8F09F40EA01039B079A
:1002F00003D009E008C9121F08C0042AFAD203E09B
:1003000011F8013B00F8013B521EF9D27047D2B2FE
:1003100001E000F8012B491EFBD270470022F6E7EE
:1003200010B513460A4604461946FFF7F0FF20466B
:1003300010BD10B5044604E00B7800F8013B03B192
:10034000491C521EF8D2204610BD034611F8012B5D
:1003500000F8012B002AF9D118467047202A04DB47
:10036000203A00FA02F1002070479140C2F12003C8
:1003700020FA03F3194390407047202A04DB203A07
:1003800021FA02F00021704721FA02F3D040C2F1B5
:100390002002914008431946704700207047000032
:1003A0001CB509480090094801900546009C06E0EC
:1003B000E06840F0010394E8070098471034AC422D
:1003C000F6D3FFF747FF0000004E0108204E01085A
:1003D00070B58C1810F8015B15F0070301D110F807
:1003E000013B2A1106D110F8012B03E010F8016B34
:1003F00001F8016B5B1EF9D12B0705D40023521EB7
:100400000DD401F8013BFAE710F8013BCB1A921C1E
:1004100003E013F8015B01F8015B521EF9D5A1421C
:10042000D8D3002070BD000080B588B0ADF81E00A4
:1004300000208DF81D00BDF81E0008B9FFE7FBE0A5
:100440000DF11D0002F004FE40B1FFE740F6185127
:10045000C2F20001086901300861EDE09DF81D005D
:1004600008B9FFE7E8E00DF1170002F099FE40B18E
:10047000FFE740F61851C2F2000108690130086137
:10048000DAE09DF817109DF818209DF81900000477
:1004900040EA0220084404909DF81200000600285B
:1004A00005D5FFE7049800F17F400490FFE79DF831
:1004B0001A109DF81B209DF81C00000440EA022041
:1004C00008440390039840B9FFE740F61851C2F280
:1004D0000001086901300861AEE09DED040AB8EE44
:1004E000C00A9FED561A20EE010A40F2BC20C2F26B
:1004F000000080ED010A9DED030AB8EE400A9FED71
:10050000501A80EE010A8DED020A40F2A420C2F2D8
:100510000000007868B9FFE7029840F2A021C2F21B
:100520000001086040F2A421C2F20001012008701D
:1005300034E040F20400C2F2000090ED000A9FEDAA
:10054000411A30EE010A80ED000A90ED000AB5EE86
:10055000001A30EE011A80EE010A8DED010A9DEDC0
:10056000010A9DED022A40F2A021C2F2000191EDA4
:10057000001A32EE412A20EE020A30EE010A81ED25
:10058000000A9DED011AB7EE000A30EE411A90ED17
:10059000000A20EE010A80ED000AFFE740F2A020E9
:1005A000C2F20000016840F2BC20C2F200000090DC
:1005B000016090ED000A9FED241A80EE010ADFED44
:1005C000230A13F0C7FD0098B0EE401AB7EE000AF8
:1005D00030EE410A9FED1E1A20EE010A80ED020A5C
:1005E00040F2AC20C2F20000007888B9FFE740F288
:1005F000BC20C2F20000806840F2A821C2F20001D3
:10060000086040F2AC21C2F2000101200870FFE74F
:1006100040F2BC21C2F2000191ED020A40F2A82092
:10062000C2F2000090ED001A30EE410A81ED030A9B
:10063000086901300861FFE708B080BD000080371D
:100640000000C8450AD7233C00507D44B1DC423E3F
:10065000002A2D4780B582B08DF80700009140F246
:100660009450C2F20000002141610161C1608160CB
:1006700041600160012101709DF80700009A12F0AD
:10068000F3F802B080BD000080B586B08DF8170089
:100690008DED040ACDED030A8DED021ACDED011AA0
:1006A0008DED002A40F29451C2F200010020486111
:1006B0000861C8608860486008601D200870049860
:1006C000C1F801000398C1F805000298C1F80900BB
:1006D0000198C1F80D000098C1F811009DF81700AD
:1006E000182112F011F906B080BD000080B582B06B
:1006F0008DF807008DF80610009240F29451C2F276
:100700000001002048610861C86088604860086096
:1007100008709DF8060048709DF80700009A0221B5
:1007200012F0A2F802B080BD80B586B0049040F20D
:100730009452C2F20002002050611061D0609060BB
:10074000506010602C211170049A0121019112F067
:100750008BF801990390049A084612F085F80290EC
:10076000039818B1FFE70398059008E0029818B1C4
:10077000FFE70298059002E000200590FFE705984A
:1007800006B080BD80B582B012F022FB01900198C6
:1007900002B080BD80B584B0ADF80A0001918DF83B
:1007A0000320BDF80A0040F2FE71884207DCFFE733
:1007B000019820B1FFE79DF8030020B9FFE76FF033
:1007C0000100039008E0BDF80A0001999DF803209C
:1007D00012F098FB0390FFE7039804B080BD00007F
:1007E00080B584B0ADF80E0012F088FB40F2CC402A
:1007F000C2F2000012F00AFA0190019818B9FFE75E
:1008000011F0C0FD0DE00198B0F1FF3F08DCFFE7FB
:1008100040F61851C2F20001C8690130C861FFE713
:10082000FFE740F2FC40C2F2000012F011FA40B1C2
:10083000FFE740F61851C2F20001086A0130086271
:10084000FFE740F22C50C2F2000012F04FFA40B124
:10085000FFE740F61851C2F20001486A01304862D1
:10086000FFE711F0D3FD40F27000C2F20000007803
:1008700038B9FFE740F2B021C2F200010020086061
:1008800047E040F67450C2F20000407990B9FFE7AB
:1008900040F67450C2F20000C07858B9FFE740F645
:1008A0007450C2F20000007920B9FFE76420ADF86F
:1008B000020003E00520ADF80200FFE7BDF80E20BE
:1008C00040F2B020C2F200000168114401600068EB
:1008D000BDF8021088421CD3FFE740F2B021C2F2FB
:1008E00000010020086005F029FFCDF80A0040F261
:1008F00002300DF10A01042212F004FB40B1FFE7BF
:1009000040F61851C2F20001886901308861FFE7A2
:10091000FFE704B080BD000080B58AB0ADF82600C6
:1009200040F29C00C2F2000005A90C2202F0E2FD98
:100930009DF814009DF8151040EA0120ADF80E0056
:100940009DF816009DF8171040EA0120ADF8100040
:100950009DF818009DF8191040EA0120ADF812002A
:100960009DF81A009DF81B1040EA0120ADF8080020
:100970009DF81C009DF81D1040EA0120ADF80A000A
:100980009DF81E009DF81F1040EA0120ADF80C00F4
:1009900000208DF80700FFE79DF80700022832D8F5
:1009A000FFE79DF807100DF10E0030F9110000EE81
:1009B000100AB8EEC00A9FED531A20EE010A40F269
:1009C0004040C2F2000000EB810080ED000A9DF87B
:1009D000071002A830F9110000EE100AB8EEC00AA4
:1009E0009FED491A20EE010A40F2D450C2F20000F5
:1009F00000EB810080ED000AFFE79DF80700013061
:100A00008DF80700C8E740F2CE30C2F2000000784F
:100A1000002874D0FFE740F2B800C2F2000005A938
:100A20000C2202F067FD9DF814009DF8151040EAB5
:100A30000120ADF80E009DF816009DF8171040EA51
:100A40000120ADF810009DF818009DF8191040EA3B
:100A50000120ADF812009DF81A009DF81B1040EA25
:100A60000120ADF808009DF81C009DF81D1040EA1B
:100A70000120ADF80A009DF81E009DF81F1040EA05
:100A80000120ADF80C0000208DF80600FFE79DF86E
:100A90000600022832D8FFE79DF806100DF10E007F
:100AA00030F9110000EE100AB8EEC00A9FED151AD9
:100AB00020EE010A40F24C40C2F2000000EB81003F
:100AC00080ED000A9DF8061002A830F9110000EE32
:100AD000100AB8EEC00A9FED0C1A20EE010A40F28F
:100AE000E050C2F2000000EB810080ED000AFFE759
:100AF0009DF8060001308DF80600C8E7FFE70AB050
:100B000080BD00BF000080390000003D80B582B08C
:100B100040F29C00C2F2000000F0BEF80090009885
:100B200018B1FFE700980190B2E040F2B800C2F2BD
:100B3000000000F0B1F80090009838B9FFE740F2EB
:100B4000CE31C2F2000101200870FFE740F29C00A4
:100B5000C2F2000002F030FC0090009818B1FFE7EC
:100B60000098019094E040F2CE30C2F2000000788C
:100B700090B1FFE740F2B800C2F2000002F01CFCA6
:100B80000090009838B1FFE740F2CE31C2F2000188
:100B900000200870FFE7FFE740F2DC5004F0E6FBBE
:100BA00040F29C00C2F2000002F0D2FB00900098DC
:100BB00018B1FFE7009801906AE00A2004F0D6FB24
:100BC00040F29C00C2F2000002F0D2FB00900098BC
:100BD00018B1FFE7009801905AE040F2CE30C2F21F
:100BE0000000007838B3FFE740F2B800C2F200001E
:100BF00002F0AEFB0090009838B1FFE740F2CE3132
:100C0000C2F200010020087014E00A2004F0AEFBDC
:100C100040F2B800C2F2000002F0AAFB0090009877
:100C200038B1FFE740F2CE31C2F200010020087077
:100C3000FFE7FFE7FFE740F29C00C2F2000002F08E
:100C4000FBFB0090009818B1FFE7009801901FE0AF
:100C500040F2CE30C2F20000007890B1FFE740F2DF
:100C6000B800C2F2000002F0E7FB0090009838B133
:100C7000FFE740F2CE31C2F2000100200870FFE72A
:100C8000FFE74FF4967004F071FB00200190FFE73E
:100C9000019802B080BD000080B584B00290029837
:100CA00002F044FC0190019818B1FFE7019803900D
:100CB00041E0029802F072FC0190019818B1FFE740
:100CC0000198039037E0029802F0E6FB019001984A
:100CD00018B1FFE7019803902DE0029802F07CFB29
:100CE0000190019818B1FFE70198039023E0029862
:100CF000202102F0EBFC0190019818B1FFE7019868
:100D0000039018E00298602102F00EFD0190019816
:100D100018B1FFE7019803900DE00298062102F058
:100D20007FFC0190019818B1FFE70198039002E061
:100D300000200390FFE7039804B080BD80B582B027
:100D4000ADF80600BDF8060040B1FFE740F27100C3
:100D5000C2F200000078022801D0FFE70BE002F0A9
:100D6000D9FA40B1FFE740F61851C2F20001486DD0
:100D700001304865FFE702B080BD000080B584B057
:100D800040F60400C4F20240006800F04001002078
:100D9000B0EB911F04D1FFE711F012FE039065E064
:100DA00002F0F0FC20B1FFE74FF0FF3003905DE070
:100DB0000DF1070002F0EAFC20B1FFE74FF0FF3031
:100DC000039053E09DF8070020B9FFE711F0F8FD0C
:100DD00003904BE09DF807008DF8060005F0AEFC8F
:100DE0000290FFE705F0AAFC0299401AC0087C288F
:100DF0001DD8FFE70DF1070002F0C8FC20B1FFE7A6
:100E00004FF0FF30039031E09DF807109DF8060089
:100E100008408DF806009DF8060020B9FFE711F0A4
:100E2000CFFD039022E00A2004F0A0FADAE70120C7
:100E300005F0ACFD022005F0A9FD082005F0A6FD97
:100E4000202005F0A3FD40F64001C4F202410868ED
:100E500040F0FF00086040F60001C4F2024108685B
:100E600040F08000086000200390FFE7039804B082
:100E700080BD000080B540F25C51C2F2000100204C
:100E8000087002F07FFC80BD80B582B0ADF806002E
:100E900040F25C50C2F200000078F0B9FFE740F683
:100EA0007450C2F20000C078B0B1FFE740F6745051
:100EB000C2F20000007978B1FFE711F065FF20B1C0
:100EC000FFE711F073FF38B9FFE740F25C51C2F25F
:100ED000000101200870FFE714E00DF1050002F0A9
:100EE00055FC40B1FFE740F61851C2F20001086B13
:100EF0000130086306E09DF8050018B9FFE711F01E
:100F00005FFDFFE702B080BD80B584B08DF80B00B7
:100F10009DF80B00652804D3FFE76FF001000390F4
:100F200014E09DF80B0018B9FFE76A20019003E078
:100F30009DF80B000190FFE701988DF80A009DF8DD
:100F40000A10002012F008FE0390FFE7039804B097
:100F500080BD000080B582B0ADF8060040F6745048
:100F6000C2F200008079012807D0FFE740F2B421E7
:100F7000C2F200010020087024E040F2B420C2F266
:100F80000000007870B9FFE705F0D8FB40F2B82107
:100F9000C2F20001086040F2B421C2F20001012057
:100FA00008700FE005F0CAFB40F2B821C2F2000160
:100FB0000968401A00097C2801D8FFE702E011F017
:100FC0008FFDFFE702B080BDFFE7FEE784B002902F
:100FD0000191009202980199884203DAFFE7019893
:100FE00003900AE002980099884203DDFFE7009829
:100FF000039002E002980390FFE7039804B0704763
:1010000085B004900498006A0390049800684069D1
:1010100020F4430003990843049909684861049B3C
:101020001A6958699969DB691843104308430390AA
:101030000498016801205022C4F2020291420290F9
:1010400000F06781FFE70498016801205022C5F293
:1010500002029142029000F05C81FFE7049801686F
:101060000120D022C4F202029142029000F051818C
:10107000FFE7049801680120D022C5F202029142E4
:10108000029000F04681FFE704980168012040F2D9
:101090005012C4F202029142029000F03A81FFE73E
:1010A00004980168012040F25012C5F202029142F8
:1010B000029000F02E81FFE704980168012040F2C1
:1010C000D012C4F202029142029000F02281FFE7A6
:1010D00004980168012040F2D012C5F20202914248
:1010E000029000F01681FFE704980168012040F2A9
:1010F0005022C4F202029142029000F00A81FFE7FE
:1011000004980168012040F25022C5F20202914287
:10111000029000F0FE80FFE704980168012040F291
:10112000D022C4F202029142029000F0F280FFE766
:1011300004980168012040F2D022C5F202029142D7
:10114000029000F0E680FFE704980168012040F279
:101150005032C4F202029142029000F0DA80FFE7BE
:1011600004980168012040F25032C5F20202914217
:10117000029000F0CE80FFE704980168012040F261
:10118000D032C4F202029142029000F0C280FFE726
:1011900004980168012040F2D032C5F20202914267
:1011A000029000F0B680FFE704980168012041F248
:1011B0005002C4F202029142029000F0AA80FFE7BE
:1011C00004980168012041F25002C5F202029142E6
:1011D000029000F09E80FFE704980168012041F230
:1011E000D002C4F202029142029000F09280FFE726
:1011F00004980168012041F2D002C5F20202914236
:10120000029000F08680FFE704980168012041F217
:101210005012C4F20202914202907AD0FFE7049881
:101220000168012041F25012C5F20202914202907F
:101230006FD0FFE704980168012041F2D012C4F298
:1012400002029142029064D0FFE7049801680120F5
:1012500041F2D012C5F202029142029059D0FFE74A
:1012600004980168012041F25022C4F20202914226
:1012700002904ED0FFE704980168012041F250220D
:10128000C5F202029142029043D0FFE70498016840
:10129000012041F2D022C4F202029142029038D0E1
:1012A000FFE704980168012041F2D022C5F2020252
:1012B000914202902DD0FFE704980168012041F28D
:1012C0005032C4F202029142029022D0FFE7049809
:1012D0000168012041F25032C5F2020291420290AF
:1012E00017D0FFE704980168012041F2D032C4F220
:1012F0000202914202900CD0FFE7049800684EF67B
:101300003041CAF6FD710844B0FA80F040090290FD
:10131000FFE70298C007B8B1FFE70498426A836A02
:10132000C06A0021CFF6F07101EB035101F07C712E
:1013300008436FF00F0101EB021101F47C710143CE
:10134000039808430390FFE704980068006C00F0DE
:1013500080200399084304990968086404998868FF
:101360000A791043096B084303900498C068B0F5EC
:10137000806F40F07C81FFE70498016801205022D3
:10138000C4F202029142019000F06781FFE70498E5
:10139000016801205022C5F202029142019000F042
:1013A0005C81FFE7049801680120D022C4F20202A8
:1013B0009142019000F05181FFE7049801680120FB
:1013C000D022C5F202029142019000F04681FFE76F
:1013D00004980168012040F25012C4F202029142C6
:1013E000019000F03A81FFE704980168012040F283
:1013F0005012C5F202029142019000F02E81FFE7E7
:1014000004980168012040F2D012C4F20202914215
:10141000019000F02281FFE704980168012040F26A
:10142000D012C5F202029142019000F01681FFE74E
:1014300004980168012040F25022C4F20202914255
:10144000019000F00A81FFE704980168012040F252
:101450005022C5F202029142019000F0FE80FFE7A7
:1014600004980168012040F2D022C4F202029142A5
:10147000019000F0F280FFE704980168012040F23B
:10148000D022C5F202029142019000F0E680FFE70F
:1014900004980168012040F25032C4F202029142E5
:1014A000019000F0DA80FFE704980168012040F223
:1014B0005032C5F202029142019000F0CE80FFE767
:1014C00004980168012040F2D032C4F20202914235
:1014D000019000F0C280FFE704980168012040F20B
:1014E000D032C5F202029142019000F0B680FFE7CF
:1014F00004980168012041F25002C4F202029142B4
:10150000019000F0AA80FFE704980168012041F2F1
:101510005002C5F202029142019000F09E80FFE766
:1015200004980168012041F2D002C4F20202914203
:10153000019000F09280FFE704980168012041F2D9
:10154000D002C5F202029142019000F08680FFE7CE
:1015500004980168012041F25012C4F20202914243
:1015600001907AD0FFE704980168012041F25012FF
:10157000C5F20202914201906FD0FFE70498016822
:10158000012041F2D012C4F202029142019064D0D3
:10159000FFE704980168012041F2D012C5F202026F
:1015A0009142019059D0FFE704980168012041F26F
:1015B0005022C4F20202914201904ED0FFE70498FB
:1015C0000168012041F25022C5F2020291420190CD
:1015D00043D0FFE704980168012041F2D022C4F211
:1015E00002029142019038D0FFE70498016801207F
:1015F00041F2D022C5F20202914201902DD0FFE7C4
:1016000004980168012041F25032C4F20202914272
:10161000019022D0FFE704980168012041F2503286
:10162000C5F202029142019017D0FFE704980168C9
:10163000012041F2D032C4F20202914201900CD05A
:10164000FFE7049800684EF63041CAF6FD71084481
:10165000B0FA80F040090190FFE70198C00728B177
:10166000FFE7039840F480600390FFE70CE00498E4
:10167000C068B0F5007F05D1FFE7039840F4007023
:10168000039000E0FFE7FFE70498416B03980843ED
:10169000039004980068406C42F20011C3F6C04108
:1016A000084003990843049909684864049801684C
:1016B0000020886404980168012040F25032C4F28E
:1016C0000202914200904ED0FFE704980168012089
:1016D00040F25032C5F202029142009043D0FFE73F
:1016E00004980168012040F2D032C4F20202914213
:1016F000009038D0FFE704980168012040F2D03212
:10170000C5F20202914200902DD0FFE704980168D3
:10171000012041F25032C4F202029142009022D0E4
:10172000FFE704980168012041F25032C5F202023D
:101730009142009017D0FFE704980168012041F220
:10174000D032C4F20202914200900CD0FFE704981C
:1017500000684EF63041CAF6FD710844B0FA80F0D8
:1017600040090090FFE70098C00740B1FFE70498E8
:10177000016800204865049909688865FFE70498B6
:1017800001680020C86705B07047000085B001906F
:10179000019890ED062A90ED070A90ED085A90ED19
:1017A000094A22EE021ABEEE003A31EE036A20EE3A
:1017B000001A31EE061A90ED0A7A62EE040A20EE63
:1017C000056A36EE606AD0ED0B0A26EE206A21EE3D
:1017D000071A31EE061A22EE052A20EE040A30EE30
:1017E000020A90ED0C2A20EE020A30EE010A30EED9
:1017F000000A8DED020A019890ED062A90ED075A35
:1018000090ED081A90ED094A22EE046A25EE010ACD
:1018100030EE060A90ED0A7A22EE026A76EE030AAC
:1018200021EE016A36EE206AD0ED0B0A26EE206A20
:1018300020EE070A30EE060A22EE052A21EE041AEF
:1018400031EE421A90ED0C2A21EE021A30EE010A16
:1018500030EE000A8DED030A019890ED062A90ED16
:10186000076A90ED081A90ED090A22EE015A26EE59
:10187000004A34EE454A90ED0A5A22EE066A21EEFD
:10188000001A31EE061A90ED0B6A21EE061A24EECC
:10189000054A31EE041A22EE022A32EE032A20EE25
:1018A000000A30EE020A90ED0C2A20EE020A30EE19
:1018B000010A30EE000A8DED040A01980078014615
:1018C0000091022804D3FFE70098022809D011E014
:1018D0009DED040ABFEE001A30EE010A8DED040AF8
:1018E00008E09DED040AB7EE001A30EE010A8DED16
:1018F000040AFFE79DED020ADDED030A9DED041ADF
:1019000005B0704785B00090009B9869D9691A6A44
:101910005B6A04930392029101909DED010ADDED53
:10192000020A9DED031ADDED041A05B070470000B0
:1019300080B582B00190019844F61C51C0F60101B7
:1019400000F0D8F8019800F003F802B080BD000064
:1019500080B58EB00D900D9A4FF07E50099000200A
:101960000A900B900C9009990A9BDDF82CC0DDF8C9
:1019700030E0C2F824E0C2F820C0D36191610D9A32
:101980000690079008900699079BDDF820C0C2F8E2
:1019900030C0D36291620D9A012182F834100D9A01
:1019A0000021C4F2201191630D9981F840000D9A35
:1019B0000390049005900399049BDDF814C0C2F8CD
:1019C0004CC0936451640D9A00900190029000996C
:1019D000019BDDF808C0C2F858C0536511650D9928
:1019E00081F85C000D9908660D9A516951660D9950
:1019F00081F868000D99C8660D99486908670EB0AE
:101A000080BD000080B590B00F908DED0E0A0F984C
:101A100090ED060A90ED073A90ED081A90ED092A2C
:101A200023EE013A20EE020A30EE030A21EE013ADB
:101A3000B6EE001A8DED011A31EE431A22EE022A9B
:101A400071EE420A12F088F98DED0D0A9DED0D0A36
:101A50008DED020A9DED0E0A00F0C0FC9DED011A0D
:101A6000B0EE402A9DED020A30EE420A20EE010A55
:101A70008DED0C0A9DED0C0A12F0C4FA8DED080AEA
:101A8000002009900A909DED0C0A12F095FEB0EE30
:101A9000401A9FED170A30EE410A8DED0B0A0F98A0
:101AA00003909DED080ADDED090A9DED0A1ADDEDB2
:101AB0000B1A90ED062AD0ED072A90ED083AD0EDEA
:101AC000093A00F07FFE0399CDED071A8DED061A55
:101AD000CDED050A8DED040A0498059A069BDDF804
:101AE0001CC0C1F824C00B62CA61886110B080BDFF
:101AF0000000008080B586B00590049104980078BD
:101B0000059908700498406805994860049890ED1C
:101B1000020AB5EE400AF1EE10FA05D1FFE79FED9B
:101B20004C0A8DED030A09E0049890ED020A9FED3E
:101B3000471A20EE010A8DED030AFFE79DED030A27
:101B4000059880ED020A049890ED030AB5EE400A6C
:101B5000F1EE10FA05D1FFE79FED3D0A8DED020A87
:101B600011E0049890ED030A00F038FC12F024FE16
:101B7000B6EE001A20EE010AF0EE000A12F0EAFAC0
:101B80008DED020AFFE79DED020A059880ED030A3C
:101B9000049890ED040AB5EE400AF1EE10FA05D172
:101BA000FFE79FED2B0A8DED010A11E0049890EDFF
:101BB000040A00F013FC12F0FFFDB6EE001A20EE4E
:101BC000010AF0EE000A12F0C5FA8DED010AFFE7F6
:101BD0009DED010A059880ED040A04984069059975
:101BE00048610599486948660599486908670498F5
:101BF00090ED010AB5EE400AF1EE10FA04D0FFE7CD
:101C00000498406948B9FFE705994FF6FF70C7F699
:101C10007F70C86005990861FFE7059890F8340067
:101C2000C00720B9FFE7059948688863FFE7059872
:101C300090ED011AB2EE040A30EE410AB0EE081A35
:101C400080EE010A80ED0F0A06B080BD48E17A3FC0
:101C5000FFFF7F7F80B5CAB08DED491ACDED480AF0
:101C60008DED470ACDED462A8DED452ACDED441A7E
:101C70008DED434ACDED423A8DED413A4090CDEDA8
:101C80003F4A40994498459A469B0B63CA628862D2
:101C90009DED470AB0EEC00A409890ED021AB4EEEE
:101CA000410AF1EE10FA1ADCFFE79DED480AB0EEAA
:101CB000C00A409890ED021AB4EE410AF1EE10FA13
:101CC0000DDCFFE79DED490AB0EEC00A409890EDAB
:101CD000021AB4EE410AF1EE10FA1CDDFFE7409B58
:101CE0009869D9691A6A5B6A3E933D923C913B9030
:101CF0004098FFF72DFE40993B983C9A3D9BDDF8BC
:101D0000F8C0C1F824C00B62CA6188614099012003
:101D100081F84000FFE7409890F83400C00768B3AE
:101D2000FFE7409890ED0E0A90ED0F1A9DED3F2AC7
:101D300021EE021A30EE410A80ED0E0A409890ED35
:101D4000011A90ED0E0AB4EE410AF1EE10FA09DB29
:101D5000FFE7409890ED010AB5EE400AF1EE10FA67
:101D60000BD1FFE74099486888634099002081F8CB
:101D70003400409981F84000FFE7FFE740980DF0FC
:101D8000A7F88DED3A1ACDED390A8DED380A00200D
:101D90003790369035904099012081F85C009DED98
:101DA000440ADDED450A9DED461A01F00FF80028C2
:101DB00079D1FFE7409804909DED440ADDED450A96
:101DC0009DED461A01F054F88DED311ACDED300A33
:101DD0008DED2F0A9DED2F0ADDED300A9DED311AB4
:101DE000DDED381A9DED392ADDED3A2A01F0EAFEE3
:101DF00004998DED341ACDED330A8DED320A329807
:101E0000339A349BCB648A644864409890F83400D9
:101E1000C00790B9FFE7409890ED110AD0ED120A83
:101E200090ED131A00F0FEFF409890ED031AB4EE07
:101E3000410AF1EE10FA09DCFFE74099002081F831
:101E40005C004099086E0938086604E04099086E05
:101E500001300866FFE74099086E496E884207DD49
:101E6000FFE7409900204866409981F85C0003E054
:101E7000409948694866FFE740984269006E002132
:101E8000FFF7A4F840990866409890F85C00C007F6
:101E900040B9FFE7409A506C916CD26C3792369102
:101EA0003590FFE7FFE700202E902D902C90409971
:101EB000012081F868009DED410ADDED420A9DEDAB
:101EC000431A00F083FF002840F09780FFE7409816
:101ED0000DF086F88DED2B1ACDED2A0A8DED290A2D
:101EE000409803909DED380ADDED390A9DED3A1AD0
:101EF000DDED411A9DED422ADDED432A00F098FE0A
:101F00008DED221ACDED210A8DED200A9DED200ADE
:101F1000DDED210A9DED221A00F0AAFF8DED251AB4
:101F2000CDED240A8DED230A9DED230ADDED240A73
:101F30009DED251ADDED291A9DED2A2ADDED2B2ACE
:101F400001F040FE03998DED281ACDED270A8DEDA5
:101F5000260A2698279A289B8B654A65086540982B
:101F600090F83400C00790B9FFE7409890ED140A4C
:101F7000D0ED150A90ED161A00F054FF409890ED40
:101F8000041AB4EE410AF1EE10FA09DCFFE74099B9
:101F9000002081F868004099C86E0938C86604E0DE
:101FA0004099C86E0130C866FFE74099C86E096F56
:101FB000884207DDFFE7409900200867409981F8D3
:101FC000680003E0409948690867FFE74098426964
:101FD000C06E0021FEF7FAFF4099C866409890F85D
:101FE0006800C00740B9FFE7409A106D516D926DCF
:101FF0002E922D912C90FFE7FFE7B6EE000A00F03D
:10200000EDF9F0EE401A9DED470ADDED480A9DED31
:10201000491A00F057FF8DED1F1ACDED1E0A8DED08
:102020001D0A9DED350ADDED360A9DED371ADDED11
:102030002C1A9DED2D2ADDED2E2A00F09DFD8DED53
:10204000161ACDED150A8DED140A4098D0ED0E1A32
:102050009DED140ADDED150A9DED161A00F032FF14
:102060008DED191ACDED180A8DED170A9DED1D0A9B
:10207000DDED1E0A9DED1F1ADDED171A9DED182AE4
:10208000DDED192A00F078FD8DED1C1ACDED1B0A4F
:102090008DED1A0A40980190DDED3F1A9DED1A0A68
:1020A000DDED1B0A9DED1C1A00F00CFF01988DED73
:1020B0000B1ACDED0A0A8DED090A90ED060AD0ED56
:1020C000070A90ED081AD0ED091A9DED092ADDEDF9
:1020D0000A2A9DED0B3A00F0C7FC0198CDED0F1ACE
:1020E0008DED0E1ACDED0D0A8DED0C0A90ED060A60
:1020F000D0ED070A90ED081AD0ED091A9DED0C2AD3
:10210000DDED0D2A9DED0E3ADDED0F3A00F07EFA81
:102110000199CDED131A8DED121ACDED110A8DED49
:10212000100A1098119A129BDDF84CC0C1F824C017
:102130000B62CA6188614098029090ED060AD0ED6A
:10214000070A90ED081AD0ED091A00F007FB029972
:10215000CDED081A8DED071ACDED060A8DED050AB5
:102160000598069A079BDDF820C0C1F824C00B62D1
:10217000CA6188614AB080BD80B58CB08DED0B1A04
:10218000CDED0A0A8DED090ACDED082A8DED072A5D
:10219000CDED061A05908DED043A059800210191C8
:1021A00002910391DDED044A9DED090ADDED0A0A75
:1021B0009DED0B1ADDED061A9DED072ADDED082ACF
:1021C0009DED013ADDED023A9DED034AFFF742FD38
:1021D000059890F83400C00730B1FFE705989FEDEF
:1021E000030AFFF70FFCFFE70CB080BD0000000002
:1021F00080B582B08DED000A9DED000ABFEE001A99
:10220000B4EE410AF1EE10FA06DCFFE740F6DB70AF
:10221000CBF6C970019016E09DED000AB7EE001AEA
:10222000B4EE410AF1EE10FA06DBFFE740F6DB7090
:10223000C3F6C970019006E09DED000A11F0F6FCAE
:102240008DED010AFFE79DED010A02B080BD00009F
:1022500085B0049003919DED030AB8EE401AB7EEE5
:10226000000A80EE010A9FED0C1A20EE010A049884
:1022700080ED000A03980499486004990020886062
:1022800004990090019002900098019A029B4B6182
:102290000A61C86005B07047FDAD003E80B592B0E0
:1022A0008DED0E1ACDED0D0A8DED0C0A0B900B98ED
:1022B0009DED0C0ADDED0D0A9DED0E1AD0ED031A11
:1022C00090ED042AD0ED052A00F07EFE8DED0A1A6D
:1022D000CDED090A8DED080A089809990A9A0E921F
:1022E0000D910C909DED0C0AB0EEC00AB0EE081AEC
:1022F000B4EE410AF1EE10FA18DCFFE79DED0D0A8D
:10230000B0EEC00AB0EE081AB4EE410AF1EE10FACF
:102310000CDCFFE79DED0E0AB0EEC00AB0EE081A25
:10232000B4EE410AF1EE10FA0ADDFFE70B99002046
:1023300088600C980D990E9A119210910F9045E0BB
:102340000B984168806888420BD2FFE70B99886838
:10235000013088600C980D990E9A119210910F908F
:1023600034E00B980190D0ED001A9DED0C0ADDEDE4
:102370000D0A9DED0E1A00F0CFFD01988DED041AA7
:10238000CDED030A8DED020A90ED030AD0ED040AAB
:1023900090ED051ADDED021A9DED032ADDED042A0C
:1023A00000F018FC01998DED071ACDED060A8DEDB0
:1023B000050A0598069A079B4B610A61C8600C984C
:1023C0000D990E9A119210910F90FFE79DED0F0A53
:1023D000DDED100A9DED111A12B080BD81B08DEDBA
:1023E000000A9DED000A9FED031A20EE010A01B0DC
:1023F000704700BF35FA8E3C82B08DED010A01981E
:102400000090009941F21240C5F61F70A0EB6100E8
:1024100000909DED000A9DED011A9FED082A21EE26
:10242000021A21EE001A21EE001A9FED052A31EE64
:10243000021A20EE010A02B0704700BF12D336BF65
:10244000FF51D83FF0B58FB0189E179D169CDDF850
:1024500054E0DDF850C00B960A950994CDF820E0C1
:10246000CDF81CC006930592049103908DED021ADD
:10247000CDED010A8DED000A9DED031A9DED043AA4
:102480009DED050A9DED004A9DED015A9DED022A44
:1024900023EE053A21EE041A31EE031A20EE020A69
:1024A00030EE010A8DED0C0A9DED061A9DED073AFE
:1024B0009DED080A9DED004A9DED015A9DED022A11
:1024C00023EE053A21EE041A31EE031A20EE020A39
:1024D00030EE010A8DED0D0A9DED091A9DED0A3AC7
:1024E0009DED0B0A9DED004A9DED015A9DED022ADE
:1024F00023EE053A21EE041A31EE031A20EE020A09
:1025000030EE010A8DED0E0A9DED0C0ADDED0D0A8F
:102510009DED0E1A0FB0F0BDF0B5A1B02A9E299D19
:10252000289CDDF89CE0DDF898C08DED1D1ACDEDFE
:102530001C0A8DED1B0A1A9619951894CDF85CE0CB
:10254000CDF858C01593149213911290CDED112A25
:102550008DED102ACDED0F1A8DED0E4ACDED0D3A11
:102560008DED0C3A9DED1B0ADDED1C0A9DED1D1A4B
:10257000DDED0C1A9DED0D2ADDED0E2A00F0F6FCC6
:102580008DED081ACDED070A8DED060A9DED060AC0
:10259000DDED070A9DED081ADDED0F1A9DED102AFD
:1025A000DDED112A00F0B6FB8DED0B1ACDED0A0A18
:1025B0008DED090A12981399149A159BDDF858C0ED
:1025C000179C189D199E1A9F9DED090ADDED0A0AB8
:1025D0009DED0B1AEE46CEF81070CEF80C60CEF8DA
:1025E0000850CEF80440CEF800C0FFF72BFF8DED69
:1025F000201ACDED1F0A8DED1E0A9DED1E0ADDEDA0
:102600001F0A9DED201A21B0F0BD00008CB0CDED69
:10261000071A8DED061ACDED050A8DED040ACDEDF4
:10262000033A8DED023ACDED012A8DED002A9DEDA4
:10263000040A9DED001A30EE010A8DED080A9DEDA9
:10264000050A9DED011A30EE010A8DED090A9DED96
:10265000060A9DED021A30EE010A8DED0A0A9DED83
:10266000070A9DED031A30EE010A8DED0B0A9DED70
:10267000080ADDED090A9DED0A1ADDED0B1A0CB012
:10268000704700008CB0CDED071A8DED061ACDED28
:10269000050A8DED040ACDED033A8DED023ACDED3C
:1026A000012A8DED002A9DED040A9DED001A20EE11
:1026B000010A8DED080A9DED050A9DED011A20EE37
:1026C000010A8DED090A9DED060A9DED021A20EE24
:1026D000010A8DED0A0A9DED070A9DED031A20EE11
:1026E000010A8DED0B0A9DED080ADDED090A9DED4D
:1026F0000A1ADDED0B1A0CB07047000080B588B0E7
:10270000CDED071A8DED061ACDED050A8DED040A03
:102710009DED042ADDED052A9DED063ADDED073A33
:10272000B0EE420AF0EE620AB0EE431AF0EE631A1F
:10273000FFF7A8FFCDED031A8DED021ACDED010ACA
:102740008DED000A9DED000ADDED010A9DED021AF6
:10275000DDED031A00F008F908B080BD80B588B03F
:10276000CDED031A8DED021ACDED010A8DED000AB3
:102770009DED000ADDED010A9DED021ADDED031A63
:10278000FFF7BCFFFFF738FEB0EE402A9DED000AD0
:10279000DDED010A9DED021ADDED031A00F0AEF841
:1027A000CDED071A8DED061ACDED050A8DED040A63
:1027B0009DED040ADDED050A9DED061ADDED071A13
:1027C00008B080BD8CB0CDED071A8DED061ACDEDA9
:1027D000050A8DED040ACDED033A8DED023ACDEDFB
:1027E000012A8DED002A9DED040A9DED055A9DED0F
:1027F000063A9DED071A9DED006A9DED017A9DED6B
:10280000024A9DED032A25EE075A20EE060A30EE15
:10281000450A23EE043A30EE430A21EE021A30EE66
:10282000410A8DED080A9DED007A9DED016A9DED4E
:10283000022A9DED034A9DED043A9DED055A9DED5A
:10284000060A9DED071A25EE075A23EE063A33EEE7
:10285000053A20EE040A30EE030A21EE021A30EEA9
:10286000410A8DED090A9DED004A9DED012A9DED7D
:10287000026A9DED037A9DED043A9DED055A9DEDAA
:10288000061A9DED070A25EE075A23EE063A33EEA7
:10289000453A21EE041A31EE031A20EE020A30EE18
:1028A000010A8DED0A0A9DED002A9DED014A9DED7C
:1028B000027A9DED036A9DED041A9DED055A9DED8A
:1028C000063A9DED070A25EE075A21EE061A31EE6B
:1028D000051A23EE043A31EE431A20EE020A30EED6
:1028E000010A8DED0B0A9DED080ADDED090A9DED4B
:1028F0000A1ADDED0B1A0CB07047000089B0CDED5F
:10290000041A8DED031ACDED020A8DED010A8DED4D
:10291000002A9DED010A9DED001A20EE010A8DEDC1
:10292000050A9DED020A9DED001A20EE010A8DEDCB
:10293000060A9DED030A9DED001A20EE010A8DEDB9
:10294000070A9DED040A9DED001A20EE010A8DEDA7
:10295000080A9DED050ADDED060A9DED071ADDED7D
:10296000081A09B07047000084B0CDED031A8DED50
:10297000021ACDED010A8DED000A9DED000A9DEDD4
:10298000013A9DED022A9DED031A30EE030A30EE66
:10299000020A30EE010A04B07047000080B588B02A
:1029A000CDED041A8DED031ACDED020A8DED010A6D
:1029B0009DED011A9DED023A9DED030A9DED042A5D
:1029C00021EE033A20EE020A30EE030A22EE022A3A
:1029D00021EE011A31EE021AB6EE002A8DED002A20
:1029E00071EE420A11F0B8F900F0B8F88DED050A61
:1029F0009DED010A9DED021A9DED032A9DED043A1D
:102A000021EE031A20EE020A30EE410A30EE000AEF
:102A1000FFF7EEFB00F0A2F89DED002A8DED060A0F
:102A20009DED011A9DED023A9DED030A9DED044ACC
:102A300021EE044A23EE000A30EE040A23EE033AA4
:102A400021EE011A31EE031A71EE420A11F084F9F7
:102A500000F084F88DED070A9DED050ADDED060A0C
:102A60009DED071A08B080BD8BB0CDED061A8DED37
:102A7000051ACDED040A8DED030A8DED023ACDED78
:102A8000012A8DED002A9DED043A9DED050A9DED8C
:102A9000061A9DED004A9DED015A9DED022A20EE99
:102AA000450A23EE043A30EE430A21EE021A30EED4
:102AB000410A8DED070A9DED004A9DED012A9DED2D
:102AC000025A9DED030A9DED053A9DED061A23EE8F
:102AD000053A20EE040A30EE030A21EE021A30EE27
:102AE000410A8DED080A9DED002A9DED014A9DEDFC
:102AF000025A9DED031A9DED043A9DED060A23EE60
:102B0000053A21EE041A31EE431A20EE020A30EEA5
:102B1000010A8DED090A9DED002A9DED015A9DEDFA
:102B2000024A9DED030A9DED043A9DED051A23EE40
:102B3000053A20EE040A30EE030A21EE021A30EEC6
:102B4000410A8DED0A0A9DED070ADDED080A9DEDAB
:102B5000091ADDED0A1A0BB07047000081B08DED47
:102B6000000A9DED000A9FED031A20EE010A01B054
:102B7000704700BFE02E654289B08DED051ACDED9E
:102B8000040A8DED030ACDED022A8DED012ACDED6B
:102B9000001A9DED030A9DED001A30EE010A8DED3D
:102BA000060A9DED040A9DED011A30EE010A8DED35
:102BB000070A9DED050A9DED021A30EE010A8DED22
:102BC000080A9DED060ADDED070A9DED081A09B019
:102BD0007047000089B08DED051ACDED040A8DED2A
:102BE000030ACDED022A8DED012ACDED001A9DEDEF
:102BF000030A9DED001A30EE010A8DED060A9DEDE7
:102C0000040A9DED011A30EE010A8DED070A9DEDD3
:102C1000050A9DED021A30EE010A8DED080A9DEDC0
:102C2000060ADDED070A9DED081A09B0704700009D
:102C300089B08DED051ACDED040A8DED030ACDEDB9
:102C4000022A8DED012ACDED001A9DED013A9DED90
:102C5000022A9DED040A9DED051A21EE031A20EECD
:102C6000020A30EE410A8DED060A9DED031A9DED34
:102C7000050A9DED002A9DED023A21EE031A20EE91
:102C8000020A30EE410A8DED070A9DED003A9DEDF6
:102C9000012A9DED030A9DED041A21EE031A20EE90
:102CA000020A30EE410A8DED080A9DED060ADDEDBF
:102CB000070A9DED081A09B07047000080B58AB078
:102CC0008DED091ACDED080A8DED070ACDED062A26
:102CD0008DED052ACDED041A9DED070ADDED080AFC
:102CE0009DED091ADDED041A9DED052ADDED062A9C
:102CF00000F03EF88DED031ACDED020A8DED010ACC
:102D00009DED010ADDED020A9DED031A00F08AF93E
:102D10000AB080BD89B08DED051ACDED040A8DEDA8
:102D2000030ACDED022A8DED012ACDED001A9DEDAD
:102D3000030A9DED001A20EE010A8DED060A9DEDB5
:102D4000040A9DED011A20EE010A8DED070A9DEDA2
:102D5000050A9DED021A20EE010A8DED080A9DED8F
:102D6000060ADDED070A9DED081A09B0704700005C
:102D700089B08DED051ACDED040A8DED030ACDED78
:102D8000022A8DED012ACDED001A9DED030A9DED7D
:102D9000001A20EE010A8DED060A9DED040A9DED54
:102DA000011A20EE010A8DED070A9DED050A9DED41
:102DB000021A20EE010A8DED080A9DED060ADDEDEE
:102DC000070A9DED081A09B07047000084B08DED28
:102DD000031ACDED020A8DED010A9DED010A0020D6
:102DE000B5EE400AF1EE10FA009015D1FFE79DED27
:102DF000020A0020B5EE400AF1EE10FA00900BD165
:102E0000FFE79DED030A0020B5EE400AF1EE10FA4F
:102E100008BF01200090FFE7009800F0010004B017
:102E20007047000080B586B08DED051ACDED040A1F
:102E30008DED030ADDED031A9DED042ADDED052A73
:102E4000B0EE610AF0EE420AB0EE621AFFF790FFB0
:102E50008DED021ACDED010A8DED000A9DED000AFF
:102E6000DDED010A9DED021A00F0DCF806B080BD30
:102E700080B586B08DED021ACDED010A8DED000A08
:102E80009DED000ADDED010A9DED021AFFF7CAFF74
:102E9000FFF7B2FAF0EE401A9DED000ADDED010AEF
:102EA0009DED021A00F00EF88DED051ACDED040A25
:102EB0008DED030A9DED030ADDED040A9DED051A73
:102EC00006B080BD87B08DED031ACDED020A8DED01
:102ED000010ACDED001A9DED010A9DED001A20EECC
:102EE000010A8DED040A9DED020A9DED001A20EE07
:102EF000010A8DED050A9DED030A9DED001A20EEF5
:102F0000010A8DED060A9DED040ADDED050A9DED31
:102F1000061A07B07047000087B08DED031ACDED9B
:102F2000020A8DED010ACDED001A9DED010A9DED1D
:102F3000001A20EE010A8DED040A9DED020A9DEDB6
:102F4000001A20EE010A8DED050A9DED030A9DEDA4
:102F5000001A20EE010A8DED060A9DED040ADDED52
:102F6000050A9DED061A07B07047000089B08DED87
:102F7000051ACDED040A8DED030ACDED022A8DED83
:102F8000012ACDED001A9DED030A9DED001A30EEE9
:102F9000410A8DED060A9DED040A9DED011A30EE01
:102FA000410A8DED070A9DED050A9DED021A30EEEE
:102FB000410A8DED080A9DED060ADDED070A9DED3B
:102FC000081A09B07047000089B08DED051ACDEDE3
:102FD000040A8DED030ACDED022A8DED012ACDED17
:102FE000001A9DED030A9DED001A30EE410A8DEDA9
:102FF000060A9DED040A9DED011A30EE410A8DEDA1
:10300000070A9DED050A9DED021A30EE410A8DED8D
:10301000080A9DED060ADDED070A9DED081A09B0C4
:103020007047000083B08DED021ACDED010A8DEDE1
:10303000000A9DED000A9DED012A9DED021A30EE79
:10304000020A30EE010A03B070470000704700002A
:1030500080B584B0029000208DF8070040F2800017
:10306000C2F20000D0F810C027210DF107020123A1
:10307000E0470090009818B1FFE70098039008E03F
:103080009DF8070000F001000299087000200390ED
:10309000FFE7039804B080BD80B584B040F28000A3
:1030A000C2F2000002900298D0F810C00DF10302A5
:1030B00001231946E0470190019818B1FFE70198F4
:1030C000039069E0012002F051F900F079F80190D5
:1030D000019818B1FFE7019803905DE0322000F0FD
:1030E000ADF80190019818B1FFE70198039053E003
:1030F0000298D0F810C027210DF103020123E04708
:103100000190019818B1FFE70198039044E0DC209A
:103110008DF803000298D0F80CC037210DF103029E
:103120000123E0470190019818B1FFE7019803904F
:1031300032E0052002F01AF940208DF803000298D1
:10314000D0F80CC036210DF103020123E0470190B5
:10315000019818B1FFE7019803901DE001238DF855
:1031600003300298D0F80CC015210DF10302E0479E
:103170000190019818B1FFE7019803900CE0DD2061
:103180008DF803000298D0F80CC037210DF103022E
:103190000123E0470390FFE7039804B080BD0000DF
:1031A00080B582B0019040F28000C2F20000D0F8F9
:1031B00010C0019A1D210623E04702B080BD000027
:1031C00080B584B040F28000C2F20000D0F810C098
:1031D0000DF1070201231946E0470290029818B149
:1031E000FFE70298039026E09DF80700502804D0DE
:1031F000FFE74FF0FF3003901DE040F28000C2F285
:103200000000D0F810C002210DF106020123E047B2
:103210000290029818B1FFE7029803900BE09DF826
:103220000600322804D0FFE74FF0FF30039002E0A1
:1032300000200390FFE7039804B080BD80B586B0FE
:10324000049000208DF80F000190FFE70198049989
:1032500088422DD2FFE740F28000C2F20000D0F891
:1032600010C028210DF10F020123E04702900298BF
:1032700018B1FFE7029805901EE09DF80F00400787
:10328000002804D5FFE74FF0FF30059014E09DF8CB
:103290000F008007002803D5FFE7002005900BE012
:1032A000012002F063F8FFE7019801300190CDE7BB
:1032B0006FF002000590FFE7059806B080BD0000A2
:1032C00080B582B08DF8070040F22C10C2F20000E9
:1032D000026A9DF80710904702B080BD80B582B0A9
:1032E0008DF8070040F26810C2F20000026A9DF8F3
:1032F0000710904702B080BD80B582B08DF80700FE
:1033000040F2A410C2F20000026A9DF80710904734
:1033100002B080BD80B582B040F2E010C2F2000081
:10332000426A6946904720B1FFE74FF0FF300190B5
:103330000BE040F2E010C2F20000026A0099B1FA1C
:1033400081F1490990470190FFE7019802B080BDE3
:1033500080B584B0039000208DF807000398D0F862
:103360000CC00A210DF107020123E04704B080BD23
:1033700080B584B00290FF208DF803000298D0F849
:1033800010C046210DF103020123E047019001988E
:1033900018B1FFE7019803900AE09DF8030020B1FF
:1033A000FFE74FF0FF30039002E000200390FFE7BB
:1033B000039804B080BD000080B584B00390A220C3
:1033C0008DF807000398D0F80CC00A210DF1070210
:1033D0000123E04704B080BD80B584B0029002981C
:1033E000D0F810C008210DF103020123E04701903D
:1033F000019818B1FFE7019803901AE09DF80300C7
:1034000000F0FC008DF803000298D0F80CC00821F1
:103410000DF103020123E0470190019818B1FFE785
:103420000198039005E0022001F0A0FF0020039026
:10343000FFE7039804B080BD80B584B00290029885
:10344000D0F810C008210DF103020123E0470190DC
:10345000019818B1FFE7019803901AE09DF8030066
:1034600040F003008DF803000298D0F80CC008214A
:103470000DF103020123E0470190019818B1FFE725
:103480000198039005E0022001F070FF00200390F6
:10349000FFE7039804B080BD80B584B00290029825
:1034A000D0F810C002210DF103020123E047019082
:1034B000019818B1FFE70198039017E09DF8030009
:1034C00040F040008DF803000298D0F80CC00221B3
:1034D0000DF103020123E0470190019818B1FFE7C5
:1034E0000198039002E000200390FFE7039804B0E6
:1034F00080BD000080B586B004900391ADF80A202D
:103500000498D0F810C0039ABDF80A303521E0477E
:103510000190019818B1FFE70198059002E00020A2
:103520000590FFE7059806B080BD000080B584B027
:1035300002900298D0F810C000210DF1030201237F
:10354000E0470190019818B1FFE70198039021E04E
:103550009DF80300052803D0FFE70120039019E040
:103560000298D0F810C00DF1020201231946E0477D
:103570000190019818B1FFE7019803900AE09DF8C7
:1035800002007C2803D0FFE70120039002E0002026
:103590000390FFE7039804B080BD000080B586B0BB
:1035A0000490B0208DF80B000498D0F80CC0602176
:1035B0000DF10B020123E04703900A2001F0D6FE33
:1035C00000200190FFE70198B0F5FA7F20DAFFE7CD
:1035D0000120009001F0CAFE009B0498D0F810C0B2
:1035E0004D210DF10B02E0470390039818B1FFE75E
:1035F0000398059010E09DF80B00802803D1FFE7A9
:103600000020059008E0FFE7019801300190DAE71B
:103610006FF002000590FFE7059806B080BD00003E
:1036200080B586B004908DF80F109DF80F008DF8CE
:1036300005000498D0F810C003210DF10702012302
:10364000E0470290029818B1FFE70298059039E030
:103650000498D0F810C004210DF106020123E047C0
:103660000290029818B1FFE7029805902AE09DF8B1
:10367000070000F0F0009DF8051008438DF80700E2
:103680009DF8060000F0F0009DF8051008438DF845
:1036900006000498D0F80CC003210DF107020123A5
:1036A000E0470290029818B1FFE70298059009E000
:1036B0000498D0F80CC004210DF106020123E04764
:1036C0000590FFE7059806B080BD000080B586B084
:1036D00004908DF80F109DF80F008DF806000498E7
:1036E000D0F810C003210DF107020123E04702903A
:1036F000029818B1FFE70298059012E09DF80700C4
:1037000000F08F009DF8061008438DF8070004981C
:10371000D0F80CC003210DF107020123E04705900A
:10372000FFE7059806B080BD80B586B004908DF89F
:103730000F109DF80F008DF806000498D0F810C007
:1037400004210DF107020123E0470290029818B10D
:10375000FFE70298059012E09DF8070000F08F0047
:103760009DF8061008438DF807000498D0F80CC0A7
:1037700004210DF107020123E0470590FFE70598BA
:1037800006B080BD80B50CF067FE80BD80B582B00C
:10379000019001980CF092FE02B080BD80B586B019
:1037A000FF208DF80F004CF20F00ADF80C00002345
:1037B0008DF80A3040F2D400C2F20000D0F814C0F4
:1037C00069460B600DF10F010122E04720B1FFE7D0
:1037D0006FF00A0005904AE0012001F0C7FDFFE705
:1037E00040F2D400C2F20000D0F818C06A460121AD
:1037F000116003A902220DF10B03E0470490049825
:10380000B0F1FF3F03DCFFE7049805902FE00120B3
:1038100001F0ACFD9DF80A0001308DF80A00C0B23D
:10382000642804DBFFE76FF0020005901FE0FFE76C
:103830009DF80B00C0070028D2D1FFE700F01AF86E
:1038400004900498B0F1FF3F03DCFFE70498059073
:103850000DE000F041F804900498B0F1FF3F03DC64
:10386000FFE70498059002E000200590FFE7059827
:1038700006B080BD80B584B09F20ADF80A0000205E
:10388000ADF8080040F2D400C2F20000D0F818C031
:10389000694602220A600DF10A0102ABE04701907D
:1038A0000198B0F1FF3F03DCFFE70198039010E0BF
:1038B0009DF808005E2805D1FFE79DF80900C128A2
:1038C00004D0FFE74FF0FF30039002E000200390A8
:1038D000FFE7039804B080BD80B584B04AF21F00B2
:1038E000ADF80A0000208DF8090040F2D400C2F2C1
:1038F0000000D0F814C06A46012111600DF10A01E0
:1039000002220DF10903E0470190019818B1FFE789
:103910000198039025E00F208DF80A00FF208DF814
:10392000090040F2D400C2F20000D0F818C06A4684
:10393000012111600DF10A0102220DF10903E04796
:103940000190019818B1FFE70198039009E09DF8F4
:10395000090000F03800002818BF4FF0FF30039036
:10396000FFE7039804B080BD80B586B00590049150
:10397000039200200290FFE7029802284CDCFFE748
:103980000598029A00EB820090ED000A40F2D420E4
:10399000C2F2000000EB820040F20801C2F2000116
:1039A000009101EB82010EF091FC0498029A00EB69
:1039B000820090ED000A40F2E020C2F2000000EB2D
:1039C000820040F21401C2F20001019101EB820178
:1039D0000EF07CFC009A0198059B029903EB810391
:1039E00093ED000A02EB8102D2ED000A049A02EB89
:1039F000810292ED001A00EB8100D0ED001A0CF06C
:103A000065FC0398029900EB810080ED000AFFE756
:103A1000029801300290AFE706B080BD80B510205B
:103A200002F0B0FC80BD000072B6FFE7FEE70000C8
:103A300080B540F27070C2F2000002F069F880BDFB
:103A400080B540F27070C2F2000002F061F880BDF3
:103A500083B002904AF60040C4F200000090029841
:103A600000684AF60001C4F20001884205D1FFE770
:103A7000009800F554700090FFE7009802990864E0
:103A800002980068D0F8800020F4F810029A1168BB
:103A9000526B40EA0240C1F88000009870300299F1
:103AA000486402980068D0F8800020F07060029AA4
:103AB0001168926B40EA0260C1F880000098B03053
:103AC00002998864009800F5C4700299C86400984F
:103AD00000F5187002990865009800F51E700299AB
:103AE000486500980190FFE70198009901F554712D
:103AF000884208D2FFE7019900200860FFE701989B
:103B000004300190F0E703B07047000088B00790E0
:103B10000691059204930698406848B9FFE7069815
:103B2000016882680069104340EA8140039009E01F
:103B300006980168826800691043084340F080409D
:103B40000390FFE70698D0F820C0C16842698369F6
:103B5000C06940EA0C601843104340EA01400290FB
:103B60000798406D049901EBC10100EBC100019081
:103B70000398019908600198043001900298019916
:103B8000086001980430019000200090FFE7009841
:103B90000699CA6844F60C51C0F60101895C884256
:103BA0000DD2FFE7059800994058019908600198E7
:103BB00004300190FFE7009804300090E7E708B078
:103BC0007047000080B58CB08DED081ACDED070A66
:103BD0008DED060ACDED052A8DED042ACDED031AF3
:103BE0009DED060ADDED070A9DED081ADDED031ACD
:103BF0009DED042ADDED052AFFF760F8B5EE400AD9
:103C0000F1EE10FA23DAFFE79DED060ADDED070A73
:103C10009DED081ADDED031A9DED042ADDED052A60
:103C2000FFF706F88DED021ACDED010A8DED000AC1
:103C30009DED000ADDED010A9DED021AFFF718F96E
:103C40008DED0B1ACDED0A0A8DED090A14E09DEDFC
:103C5000060ADDED070A9DED081ADDED031A9DED5C
:103C6000042ADDED052AFEF7E3FF8DED0B1ACDEDFD
:103C70000A0A8DED090AFFE79DED090ADDED0A0A42
:103C80009DED0B1A0CB080BD80B540F2D460C2F23D
:103C9000000001F021F880BD40F29050C2F2000017
:103CA0000068704780B5C0B020901F9100208DF84B
:103CB0007B001B901F98C0680021C4F27F018842DE
:103CC00001D0FFE700E0FFE7FFE7209890F85400FD
:103CD000012804D1FFE702208DF88700FDE3209939
:103CE000012081F85400FFE7FFE7209800680BF0FF
:103CF000DFFD002840F0DD83FFE71F980068012802
:103D000010D0FFE71F9800680221C0F230418842BE
:103D10000DD1FFE71F98C0680021C4F27F018842DF
:103D200005D1FFE7209800680BF062FDFFE72098BF
:103D300000681F990A6849680BF0C2FD2098006866
:103D40000BF0B6FD1A90209800680BF091FD1990C9
:103D50001A98002840F0B881FFE71998002840F031
:103D6000B381FFE71F988068B0F1004F0ED1FFE7E5
:103D7000209800681F99096800220BF0BFFD209869
:103D800000684FF000410BF065FE0CE020980068E1
:103D90001F9A116892680BF0B1FD2098006800210D
:103DA0000BF058FEFFE71F98406920990968C96821
:103DB00001F01801890888401D901F9800690428A7
:103DC0001CD0FFE7209800681F990A6809691D9BAD
:103DD0000BF0E6FD209800681F9A116992690BF0BC
:103DE00011FE209800681F9A1169127F013AB2FAF9
:103DF00082F2520952060BF0F1FD64E1209800684E
:103E000000210BF025FD000348B9FFE7209800686A
:103E100000210BF01DFDC0F38460189018E020987D
:103E2000006800210BF014FD90FAA0F03E903E983F
:103E300020B9FFE720208DF8FF0005E03E98B0FA9A
:103E400080F08DF8FF00FFE79DF8FF001890FFE776
:103E5000189817901F980068000330B9FFE71F9863
:103E60000068C0F38460169015E01F98006890FA0F
:103E7000A0F03C903C9820B9FFE720208DF8F70097
:103E800005E03C98B0FA80F08DF8F700FFE79DF868
:103E9000F7001690FFE717981699884207D1FFE7B9
:103EA00020980068002211460BF0C0FDFFE7209823
:103EB000006801210BF0CCFC000348B9FFE7209813
:103EC000006801210BF0C4FCC0F38460159018E079
:103ED0002098006801210BF0BBFC90FAA0F03A900A
:103EE0003A9820B9FFE720208DF8EF0005E03A98D6
:103EF000B0FA80F08DF8EF00FFE79DF8EF00159025
:103F0000FFE7159814901F980068000330B9FFE789
:103F10001F980068C0F38460139015E01F98006834
:103F200090FAA0F03890389820B9FFE720208DF85B
:103F3000E70005E03898B0FA80F08DF8E700FFE779
:103F40009DF8E7001390FFE714981399884207D172
:103F5000FFE720980068012100220BF067FDFFE7D2
:103F60002098006802210BF073FC000348B9FFE7BA
:103F70002098006802210BF06BFCC0F38460129063
:103F800018E02098006802210BF062FC90FAA0F083
:103F90003690369820B9FFE720208DF8DF0005E045
:103FA0003698B0FA80F08DF8DF00FFE79DF8DF006B
:103FB0001290FFE7129811901F980068000330B923
:103FC000FFE71F980068C0F38460109015E01F9809
:103FD000006890FAA0F03490349820B9FFE72020D0
:103FE0008DF8D70005E03498B0FA80F08DF8D7004E
:103FF000FFE79DF8D7001090FFE7119810998842CD
:1040000007D1FFE720980068022100220BF00EFD87
:10401000FFE72098006803210BF01AFC000348B961
:10402000FFE72098006803210BF012FCC0F38460C6
:104030000F9018E02098006803210BF009FC90FA1B
:10404000A0F03290329820B9FFE720208DF8CF0001
:1040500005E03298B0FA80F08DF8CF00FFE79DF8C8
:10406000CF000F90FFE70F980E901F980068000395
:1040700030B9FFE71F980068C0F384600D9015E029
:104080001F98006890FAA0F03090309820B9FFE7B0
:1040900020208DF8C70005E03098B0FA80F08DF848
:1040A000C700FFE79DF8C7000D90FFE70E980D9938
:1040B000884207D1FFE720980068032100220BF017
:1040C000B5FCFFE7FFE7FFE7209800680BF0E0FB97
:1040D000002840F04481FFE7209800681F9A11688B
:1040E000D2680BF027FC1F98C0680021C4F27F0142
:1040F000884240F03381FFE7209800680C901F98B9
:104100000068000330B9FFE71F980068C0F38460BF
:104110000B9015E01F98006890FAA0F02E902E9852
:1041200020B9FFE720208DF8BF0005E02E98B0FAF7
:1041300080F08DF8BF00FFE79DF8BF000B90FFE710
:104140000B98013000F01F0009287DD8FFE71F9869
:104150000068000330B9FFE71F980068C0F384606F
:104160000A9015E01F98006890FAA0F02C902C9807
:1041700020B9FFE720208DF8B70005E02C98B0FAB1
:1041800080F08DF8B700FFE79DF8B7000A90FFE7D1
:104190000A98013000F01F00800609901F980068FF
:1041A000000330B9FFE71F980068C0F384600890EF
:1041B00015E01F98006890FAA0F02A902A9820B97C
:1041C000FFE720208DF8AF0005E02A98B0FA80F0D4
:1041D0008DF8AF00FFE79DF8AF000890FFE7099862
:1041E0000899013101F01F02012191400843079015
:1041F0001F980068000330B9FFE71F980068C0F3FC
:104200008460069015E01F98006890FAA0F028904E
:10421000289820B9FFE720208DF8A70005E028980E
:10422000B0FA80F08DF8A700FFE79DF8A700069090
:10423000FFE707980699013101F01F0101EB4101E9
:1042400040EA0150059082E01F980068000330B9F1
:10425000FFE71F980068C0F38460049015E01F9882
:10426000006890FAA0F02690269820B9FFE7202059
:104270008DF89F0005E02698B0FA80F08DF89F0039
:10428000FFE79DF89F000490FFE70498013000F0DD
:104290001F00800603901F980068000330B9FFE7F5
:1042A0001F980068C0F38460029015E01F980068B2
:1042B00090FAA0F02490249820B9FFE720208DF8F0
:1042C000970005E02498B0FA80F08DF89700FFE79A
:1042D0009DF897000290FFE703980299013101F0E1
:1042E0001F0201219140084301901F9800680003BC
:1042F00030B9FFE71F980068C0F38460009015E0B4
:104300001F98006890FAA0F02290229820B9FFE749
:1043100020208DF88F0005E02298B0FA80F08DF80B
:104320008F00FFE79DF88F000090FFE7019900984C
:10433000013000F01F0000EB40020020CFF62060AB
:1043400000EB0250084340F000700590FFE70C9826
:1043500005991F9A92680BF0D1FAFFE7FFE71F98C3
:10436000408848F20801084200F0A280FFE748F2C6
:104370000030C4F202200BF063FA1C901F98006812
:104380000021CCF22131884233D1FFE79DF8720041
:10439000000600282DD4FFE72098006848F20001AD
:1043A000C4F20221884223D1FFE71C9840F40001A7
:1043B00048F20030C4F202200BF0E4FA40F2200090
:1043C000C2F200000068800942F66351C0F23E511B
:1043D000A0FB01108109022000EB41001B90FFE7C8
:1043E0001B9820B1FFE71B9801381B90F8E7FFE707
:1043F0005DE01F9800680021C4F22931884219D17C
:10440000FFE79DF87300C007A0B9FFE72098006898
:1044100048F20011C4F2022188420AD1FFE71C9839
:1044200040F0807148F20030C4F202200BF0AAFA8A
:10443000FFE73BE01F9800680021CCF252718842F0
:104440001AD1FFE79DF872004006002814D4FFE758
:104450002098006848F20001C4F2022188420AD183
:10446000FFE71C9840F4800148F20030C4F20220BB
:104470000BF088FAFFE718E01F9800680021C4F2EB
:104480005A7188420FD1FFE72098006848F2000176
:10449000C4F20221884205D0FFE7209800680BF0A3
:1044A000B3F9FFE700E0FFE7FFE7FFE7FFE7FFE71C
:1044B00008E02099886D40F02000886501208DF883
:1044C0007B00FFE7FFE72099002081F85400FFE719
:1044D0009DF87B008DF88700FFE79DF8870040B0CE
:1044E00080BD000080B588B0069000208DF81700D0
:1044F0000190069820B9FFE701208DF81F004FE1D9
:104500000698006940B1FFE7069890F8200001285E
:1045100001D1FFE7FFE7FFE70698806D50B9FFE79D
:10452000069800F041F906990020C865069981F8BF
:104530005400FFE7069800680BF0A2F928B1FFE7E6
:10454000069800680BF048F9FFE7069800680BF042
:10455000A7F9F0B9FFE7069800680BF061F940F29F
:104560002000C2F200000068800942F66351C0F2E8
:104570003E51A0FB01108109022000EB4100019097
:10458000FFE7019820B1FFE7019801380190F8E7B3
:10459000FFE7069800680BF083F970B9FFE706990A
:1045A000886D40F0100088650699C86D40F00100E4
:1045B000C86501208DF81700FFE7069800680BF02A
:1045C00077F903900698806DC006002800F1DA8024
:1045D000FFE70398002840F0D580FFE70698806D3C
:1045E00040F0020020F48070069988650698006803
:1045F0000BF04EF9E0B9FFE748F20000C4F20220E8
:104600000BF046F9009048F20010C4F202200BF0C3
:104610003FF901460098084348B9FFE7069841680A
:1046200048F20030C4F202200BF09EF9FFE7FFE7EA
:1046300006994A7E886B40EA42308A68CB68184304
:10464000104391F8201040EA01400490069890F839
:10465000200001280BD1FFE70698416A0020CFF621
:10466000FE7000EB4141049808430490FFE7069870
:10467000806A50B1FFE70699886AC96A00F47870C9
:104680000143049808430490FFE706980068C06857
:1046900044F20701CFF6F0710840049908430699E7
:1046A0000968C86006980068006920F04060069AB2
:1046B0001168126B10430861069800680BF0D8F877
:1046C00002900398E8BBFFE70298D0BBFFE706998A
:1046D000087E91F83410800340EA41000490069867
:1046E0000068C06844F202018843049908430699AF
:1046F0000968C860069890F83C00012819D1FFE7C6
:1047000006980068006940F2FD7120EA0102069BEC
:104710001968186CD3F844E0D3F848C040EA0E009A
:1047200040EA0C00DB6C1843104340F001000861C4
:1047300006E006980168086920F001000861FFE7BB
:10474000FFE70698006901280CD1FFE7069800688A
:10475000006B20F00F00069A1168D269013A1043ED
:10476000086306E006980168086B20F00F000863F4
:10477000FFE70698806D40F0010020F002000699E6
:10478000886508E00699886D40F010008865012072
:104790008DF81700FFE79DF817008DF81F00FFE761
:1047A0009DF81F0008B080BD80B5CCB04B900020B4
:1047B0004A90499048904790469004A84FF48471DD
:1047C000FBF7ACFD4B98006848F20001C4F20221EF
:1047D000884245D1FFE7002005904FF40011049175
:1047E000399004A805F072FA18B1FFE7FFF71CF939
:1047F000FFE740F2F820C2F20000016801310160D9
:104800000068012810D1FFE7FFE740F68C40C4F2B2
:104810000240016841F480610160006800F480603A
:1048200003900398FFE7FFE7FFE740F68C40C4F2F0
:104830000240016841F001010160006800F00100E0
:1048400002900298FFE70220469003204790002044
:1048500048900020C4F2022046A901F0CBFD4EE0B2
:104860004B98006848F20011C4F20221884245D1F9
:10487000FFE7002005904FF400110491399004A83F
:1048800005F024FA18B1FFE7FFF7CEF8FFE740F292
:10489000F820C2F2000001680131016000680128BF
:1048A00010D1FFE7FFE740F68C40C4F202400168F8
:1048B00041F480610160006800F48060019001981B
:1048C000FFE7FFE7FFE740F68C40C4F202400168D3
:1048D00041F001010160006800F0010000900098C3
:1048E000FFE70820469003204790002048900020D2
:1048F000C4F2022046A901F07DFDFFE7FFE74CB0BE
:1049000080BD000087B006900591049200208DF8CC
:104910000F001F2002909DF81400C00720B9FFE788
:1049200001208DF80F004BE0FFE70299481E02902E
:104930000020019051B1FFE70598029901F01F0195
:1049400020FA01F1012088430190FFE70198C00798
:1049500008B1FFE7E9E70498009018282BD80099E0
:10496000DFE801F028292929292929291F292929AE
:104970002929292916292929292929290D000298B7
:10498000072804D3FFE701208DF80F00FFE716E0AA
:104990000298082804D3FFE701208DF80F00FFE7F5
:1049A0000DE00298102804D3FFE701208DF80F00D6
:1049B000FFE704E003E001208DF80F00FFE7FFE7C9
:1049C0009DF80F0078B9FFE70598069909684861D6
:1049D00006980068806820F018000499084306993A
:1049E00009688860FFE79DF80F0007B07047000076
:1049F00080B582B00090009820B9FFE701208DF8C3
:104A0000070057E00098407F38B9FFE70099002081
:104A10000877009800F052F8FFE7009902204877E5
:104A20000098007980B9FFE70098016841F6B75017
:104A3000C0F2C140486100980068806820F018000A
:104A40000099096888600BE000988168C268FFF7E8
:104A500059FF20B1FFE701208DF807002AE0FFE7AA
:104A60000098407930B9FFE7009801684FF0FF30B7
:104A7000086104E00098016800690861FFE7009898
:104A80000068806820F06000009A11685269104345
:104A9000886000980068806820F08000009A1168A3
:104AA00092691043886000990120487700208DF8B2
:104AB0000700FFE79DF8070002B080BD82B00190BB
:104AC0000198006843F20001C4F20201884210D14B
:104AD000FFE7FFE740F68840C4F20240016841F476
:104AE00080510160006800F4805000900098FFE75A
:104AF000FFE702B07047000080B584B0029001F07B
:104B00001DFE0190029820B9FFE701208DF80F00EB
:104B100079E0029890F8540002280DD0FFE702993E
:104B200020208865FFE70299002081F84C00FFE70C
:104B300001208DF80F0066E002980168486940F096
:104B4000040048610299052081F85400FFE70298AB
:104B5000006800698004002827D4FFE701F0EEFD1B
:104B60000199401A06281FD3FFE70299886D40F08B
:104B7000100088650299032081F85400029890F88B
:104B800050000006002805D5FFE70298416F01207C
:104B90000873FFE7FFE70299002081F84C00FFE768
:104BA00001208DF80F002EE0D1E7029801684869D6
:104BB00040F0020048610299042081F854000298F4
:104BC00001684FF4FE40C8600299012081F854004A
:104BD000029890F850000006002809D5FFE70298D7
:104BE000416F012008730298016800208864FFE784
:104BF000FFE70299002081F84C00FFE7FFE7002063
:104C00008DF80F00FFE79DF80F0004B080BD000095
:104C100082B00090009820B9FFE701208DF80700CE
:104C20001CE0009890F85400022807D0FFE7009994
:104C30002020886501208DF807000FE000990420EE
:104C400081F8540000980168486942F20402104358
:104C50004861FFE700208DF80700FFE79DF8070097
:104C600002B0704785B003900291039820B9FFE726
:104C700001208DF813002AE00398006840F6FF71C8
:104C800088430190039800685038C0F3C411012094
:104C9000884000909DF80800C006002813D5FFE763
:104CA000029800F01100112806D1FFE7009A01993F
:104CB00048681043486005E0009A019948689043AD
:104CC0004860FFE7FFE700208DF81300FFE79DF83D
:104CD000130005B07047000080B584B003900398BE
:104CE000006840F6FF7188430290039800685038CE
:104CF000C0F3C4110120884001900298C068019956
:104D000008400090009808B9FFE74DE1039800685B
:104D100000694005002813D5FFE703980068406943
:104D2000400500280BD5FFE7039801684FF4806029
:104D3000C8600399886D40F001008865FFE7FFE7D0
:104D40000398006800690005002813D5FFE7039861
:104D500000684069000500280BD5FFE7039801684B
:104D60004FF40060C8600399886D40F002008865C8
:104D7000FFE7FFE7039800680069C004002813D527
:104D8000FFE7039800684069C00400280BD5FFE7DF
:104D9000039801684FF48050C8600399886D40F013
:104DA00004008865FFE7FFE7039800680069400496
:104DB000002813D5FFE703980068406940040028E5
:104DC0000BD5FFE7039801684FF48040C860039952
:104DD000886D40F008008865FFE7FFE703980068EA
:104DE00000698005002816D5FFE703980068406930
:104DF000800500280ED5FFE7039801684FF4007086
:104E0000C8600398406E20B1FFE70398416E884761
:104E1000FFE7FFE7FFE703980068006980040028C8
:104E200050D5FFE70398006840698004002848D502
:104E3000FFE7039801684FF40050C860039890F8AA
:104E4000540004282FD1FFE703980168486920F433
:104E50000050486103980168486940F002004861C9
:104E60000399012081F85400039890F8500000063F
:104E7000002809D5FFE70398416F012008730398C4
:104E8000016800208864FFE7FFE70399002081F8AC
:104E90004C00FFE70398C06E20B1FFE70398C16E96
:104EA0008847FFE780E00399052081F854000398C4
:104EB000006F20B1FFE70398016F8847FFE7FFE726
:104EC000FFE7FFE7039800680069C005002842D5A6
:104ED000FFE7039800684069C00500283AD5FFE75E
:104EE000039890F850000006002814D5FFE70398B7
:104EF0000068C06F70B9FFE703980068806C40B924
:104F0000FFE70399012081F854000399496F087362
:104F1000FFE7FFE70AE003980068806C28B9FFE725
:104F20000399012081F85400FFE7FFE70398016827
:104F30004FF44070C860FFE70399002081F84C00EF
:104F4000FFE70398006E20B1FFE70398016E8847E2
:104F5000FFE7FFE7FFE70398806D28B3FFE70398BB
:104F60000168486940F0020048610399012081F816
:104F70005400039890F850000006002805D5FFE77C
:104F80000398416F01200873FFE7FFE703990020B2
:104F900081F84C00FFE70398806E20B1FFE703988B
:104FA000816E8847FFE7FFE704B080BD80B584B01D
:104FB000029001F0C3FB0190029820B9FFE70120A5
:104FC0008DF80F00CEE10298C068B0F5007F01D0E7
:104FD000FFE7FFE70298406BB0F5805F01D1FFE784
:104FE000FFE70298016801205022C4F202029142B8
:104FF000009000F06781FFE70298016801205022CD
:10500000C5F202029142009000F05C81FFE7029835
:1050100001680120D022C4F202029142009000F007
:105020005181FFE7029801680120D022C5F20202F7
:105030009142009000F04681FFE70298016801204C
:1050400040F25012C4F202029142009000F03A8104
:10505000FFE702980168012040F25012C5F20202F7
:105060009142009000F02E81FFE702980168012034
:1050700040F2D012C4F202029142009000F022816C
:10508000FFE702980168012040F2D012C5F2020247
:105090009142009000F01681FFE70298016801201C
:1050A00040F25022C4F202029142009000F00A81C4
:1050B000FFE702980168012040F25022C5F2020287
:1050C0009142009000F0FE80FFE702980168012005
:1050D00040F2D022C4F202029142009000F0F2802D
:1050E000FFE702980168012040F2D022C5F20202D7
:1050F0009142009000F0E680FFE7029801680120ED
:1051000040F25032C4F202029142009000F0DA8084
:10511000FFE702980168012040F25032C5F2020216
:105120009142009000F0CE80FFE7029801680120D4
:1051300040F2D032C4F202029142009000F0C280EC
:10514000FFE702980168012040F2D032C5F2020266
:105150009142009000F0B680FFE7029801680120BC
:1051600041F25002C4F202029142009000F0AA8083
:10517000FFE702980168012041F25002C5F20202E5
:105180009142009000F09E80FFE7029801680120A4
:1051900041F2D002C4F202029142009000F09280EB
:1051A000FFE702980168012041F2D002C5F2020235
:1051B0009142009000F08680FFE70298016801208C
:1051C00041F25012C4F20202914200907AD0FFE7FD
:1051D00002980168012041F25012C5F20202914288
:1051E00000906FD0FFE702980168012041F2D012D1
:1051F000C4F202029142009064D0FFE70298016875
:10520000012041F2D012C5F202029142009059D021
:10521000FFE702980168012041F25022C4F2020225
:10522000914200904ED0FFE702980168012041F2C0
:105230005022C5F202029142009043D0FFE702984B
:105240000168012041F2D022C4F202029142009092
:1052500038D0FFE702980168012041F2D022C5F260
:105260000202914200902DD0FFE7029801680120D0
:1052700041F25032C4F202029142009022D0FFE784
:1052800002980168012041F25032C5F202029142B7
:10529000009017D0FFE702980168012041F2D03258
:1052A000C4F20202914200900CD0FFE7029800681D
:1052B0004EF63041CAF6FD710844B0FA80F040095C
:1052C0000090FFE70098C00708B1FFE7FFE7FFE79E
:1052D0000299002081F84C00FFE7029890F85400F2
:1052E00060B9FFE7029900200866029948660299B2
:1052F00088660299C86602990867FFE7029902204A
:1053000081F8540002980168486940F0060048613D
:10531000FFE7029800684069C00798B1FFE701F015
:105320000DFA0199401A06280BD3FFE702991020C5
:1053300088650299032081F8540001208DF80F0040
:1053400010E0E6E70298FBF75BFE0299486B086500
:10535000029900208865029A012182F854108DF884
:105360000F00FFE79DF80F0004B080BD80B584B04A
:10537000039001F0E3F90290039801900198013045
:1053800048B1FFE740F29420C2F200000178019892
:1053900008440190FFE7FFE701F0D0F90299401AB5
:1053A0000199884201D2FFE7F6E704B080BD000012
:1053B00086B0049003910292049890F85C008DF8F6
:1053C0000700BDF80C0010F4C07F01D0FFE7FFE735
:1053D0009DF80700012806D0FFE79DF80700022886
:1053E00040F0DE80FFE704980068806D00909DF833
:1053F0000C00400730B1FFE79DF80000C00700280F
:1054000047D0FFE79DF80C0010F0380F06D0FFE7FB
:105410009DF80000800700283BD5FFE7BDF80C0091
:1054200010F4E07F06D0FFE79DF800004007002859
:105430002FD5FFE79DF80D0010F01E0F06D0FFE7F7
:105440009DF800000007002823D5FFE79DF80D0018
:1054500010F0E00F06D0FFE79DF80000C00600281E
:1054600017D5FFE79DF80E00800730B1FFE79DF8E4
:105470000000800600280CD5FFE79DF80E0010F014
:10548000FC0F0DD0FFE79DF800004006002807D470
:10549000FFE704980168C86D40F00100C865FFE7A8
:1054A0009DF80C00400730B1FFE79DF80000C007F1
:1054B000002847D1FFE79DF80C0010F0380F06D008
:1054C000FFE79DF80000800700283BD4FFE7BDF808
:1054D0000C0010F4E07F06D0FFE79DF800004007C5
:1054E00000282FD4FFE79DF80D0010F01E0F06D006
:1054F000FFE79DF800000007002823D4FFE79DF890
:105500000D0010F0E00F06D0FFE79DF80000C00688
:10551000002817D4FFE79DF80E00800730B1FFE7A1
:105520009DF80000800600280CD4FFE79DF80E00CF
:1055300010F0FC0F0DD0FFE79DF80000400600289A
:1055400007D5FFE704980168C86D40F00200C86500
:10555000FFE79DF80C000006002809D5FFE7029A36
:1055600004980168D1F8DC001043C1F8DC00FFE7C3
:105570009DF80D00C00748B1FFE7029A0498016842
:10558000D1F8E0001043C1F8E000FFE7039A049867
:105590000168486D1043486500208DF8170008E049
:1055A0000499086E40F00200086601208DF817008B
:1055B000FFE79DF8170006B07047000080B586B081
:1055C0000490039102920398406808B9FFE700E055
:1055D000FFE7049890F85C0002282FD1FFE70498B9
:1055E0000068D0F8C4008002002809D5FFE70499BC
:1055F000086E40F40070086601208DF8170026E060
:1056000004980068D0F8C400C0F3014001900498E9
:105610000399029A019BFEF779FA0199012000FA99
:1056200001F1049A1268C2F8CC10019988400499DB
:105630008865FFE700208DF8170008E00499086EE0
:1056400040F00800086601208DF81700FFE79DF87C
:10565000170006B080BD000087B005900491059842
:1056600090F85C008DF803009DF80300012805D038
:10567000FFE79DF8030002283CD1FFE7049800688B
:10568000B8B9FFE704998868CB680A694969800757
:1056900040EAC36040EA0240084303900598006C6A
:1056A0000499496800EB8100019003980199086012
:1056B0001CE00498C168006940EA417003900498B6
:1056C0008168406940EA817002900598406C0499B5
:1056D000496800EBC10001900398019908600198A6
:1056E00004300190029801990860FFE700208DF8CE
:1056F0001B0008E00599086E40F0020008660120D2
:105700008DF81B00FFE79DF81B0007B070470000F5
:1057100085B0DDF814C003900291019200930398C4
:1057200090F85C00012819D1FFE703980068D0F8D1
:10573000800020F03F0002990901019A41EA8201AC
:10574000009A41EA4201059A114308430399096806
:10575000C1F8800000208DF8130008E00399086E5E
:1057600040F00400086601208DF81300FFE79DF863
:10577000130005B07047000085B0039002910192BC
:10578000039890F85C008DF803009DF80300012851
:1057900005D0FFE79DF80300022816D1FFE7019826
:1057A000012807D1FFE7029A03980168886D9043AA
:1057B000886506E0029A03980168886D1043886541
:1057C000FFE700208DF8130008E00399086E40F011
:1057D0000200086601208DF81300FFE79DF8130012
:1057E00005B0704781B0009001B0704782B0019061
:1057F0000091019840F27071C2F2000188420DD10F
:10580000FFE79DF802000007002807D5FFE740F6F4
:10581000C841C2F2000101200870FFE702B07047E2
:1058200083B00290019102980068406C009000984B
:1058300000F00700019908600098C0F30220019968
:105840004860009800F01800019988600098C0F343
:1058500040100199C8600098C0F380100199086158
:105860009DF80000C009019948610098C0F3C0206C
:10587000019988610098C0F300300199C8610098CF
:10588000C0F34030019908620098C0F3803001995C
:1058900048620098C0F3064001998862002003B076
:1058A0007047000083B0029001910198402808D110
:1058B000FFE702980068D0F8900000F00F00009019
:1058C00007E002980068D0F8980000F00F00009000
:1058D000FFE7009803B070478AB0089007910692DE
:1058E000059300200190089890F85C008DF8030063
:1058F0009DF80300022840F0FA80FFE7079840284F
:105900003ED1FFE708980068D0F89000000748B93A
:10591000FFE70899086E40F48070086601208DF852
:105920002700EDE008980068D0F8900000F0807142
:105930000120B0EB116F0FD1FFE708980068D0F895
:10594000800000F400710120B0EB512F03D1FFE77C
:1059500001200190FFE7FFE708980068D0F8900069
:1059600000F44071019800EB112001900898806CC0
:10597000019901EBC10100EBC1000490FFE73DE09C
:1059800008980068D0F89800000748B9FFE7089920
:10599000086E40F48070086601208DF82700AFE0A3
:1059A00008980068D0F8980000F080710120B0EBF2
:1059B000116F0FD1FFE708980068D0F8800000F45D
:1059C00080710120B0EB112F03D1FFE7012001907E
:1059D000FFE7FFE708980068D0F8980000F44071EE
:1059E000019800EB112001900898C06C019901EB1F
:1059F000C10100EBC1000490FFE7FFE704980068D5
:105A000000F08040069948600698406838B9FFE782
:105A100004980068C0F38A400699086006E004987C
:105A2000006820F0604006990860FFE7049800686D
:105A300000F00050069988600498006800F000406B
:105A40000699086104980430049004980088069927
:105A5000C86104980068C0F303400699C8600498C0
:105A6000006800F48010069948610498006800F40A
:105A700000100699886104980068C0F306600699D2
:105A8000086204980068C00F0699486204980430C0
:105A900004900498039000200290FFE70298069972
:105AA000CA6844F60C51C0F60101895C88420AD2EA
:105AB000FFE70398029A805C05998854FFE70298F3
:105AC00001300290EAE70798402806D1FFE70198E5
:105AD00008990968C1F8940005E0019808990968D7
