:020000040800F2
:10000000B852002061020008B5FF0008B5E60008FC
:10001000B1FF000819090008691F010873020008F0
:10002000000000000000000000000000710A01084C
:10003000252800080000000089000108950D01082E
:100040007D0200087D0200087D0200087D02000894
:100050007D0200087D0200087D0200087D02000884
:100060007D0200087D0200087D0200087D02000874
:100070007D0200087D0200087D020008A129000819
:100080007D0200087D0200087D0200087D02000854
:100090007D0200087D0200087D0200087D02000844
:1000A0007D0200087D0200087D0200087D02000834
:1000B0007D0200080D2C00087D0200087D0200086A
:1000C0007D0200087D0200087D0200087D02000814
:1000D000000000007D0200087D020008B52900082C
:1000E000C52900087D0200087D0200087D02000885
:1000F0007D0200087D0200087D0200087D020008E4
:100100007D0200087D0200081D1201087D02000822
:100110007D0200087D0200087D0200087D020008C3
:100120007D0200087D020008CD1E01087D02000846
:100130007D0200087D0200087D0200087D020008A3
:100140007D0200087D0200087D0200087D02000893
:100150007D0200087D0200087D0200087D02000883
:100160007D0200087D0200087D0200087D02000873
:100170007D0200087D0200087D0200087D02000863
:100180007D0200087D0200087D0200087D02000853
:100190007D0200087D0200087D0200087D02000843
:1001A0007D0200087D0200087D0200087D02000833
:1001B0007D0200087D0200087D0200087D02000823
:1001C0007D0200087D0200087D0200087D02000813
:1001D0007D0200087D0200087D0200087D02000803
:1001E0007D0200087D0200087D0200087D020008F3
:1001F0007D0200087D0200087D0200087D020008E3
:100200007D0200087D0200087D0200080000000059
:10021000000000007D020008000000007D020008D0
:100220007D0200087D0200087D0200087D020008B2
:100230007D0200087D0200087D0200087D020008A2
:100240007D0200087D0200087D020008DFF80CD066
:1002500000F0A6F800480047A1430108B85200206A
:100260000748804707480047FEE7FEE7FEE7FEE74E
:10027000FEE7FEE7FEE7FEE7FEE7FEE7FEE700003B
:10028000E51001084D0200082DE9F05F0546002049
:1002900092469B4688460646814640241BE02846F7
:1002A00041464746224600F068F853465A46C01A6F
:1002B000914110D311461846224600F04FF82D1AEE
:1002C00067EB01084F4622460120002100F046F866
:1002D00017EB00094E41201EA4F10104DFDC484663
:1002E00031462A464346BDE8F09F40EA01039B079A
:1002F00003D009E008C9121F08C0042AFAD203E09B
:1003000011F8013B00F8013B521EF9D27047D2B2FE
:1003100001E000F8012B491EFBD270470022F6E7EE
:1003200010B513460A4604461946FFF7F0FF20466B
:1003300010BD10B5044604E00B7800F8013B03B192
:10034000491C521EF8D2204610BD034611F8012B5D
:1003500000F8012B002AF9D118467047202A04DB47
:10036000203A00FA02F1002070479140C2F12003C8
:1003700020FA03F3194390407047202A04DB203A07
:1003800021FA02F00021704721FA02F3D040C2F1B5
:100390002002914008431946704700207047000032
:1003A0001CB509480090094801900546009C06E0EC
:1003B000E06840F0010394E8070098471034AC422D
:1003C000F6D3FFF747FF00005C6301087C63010878
:1003D00070B58C1810F8015B15F0070301D110F807
:1003E000013B2A1106D110F8012B03E010F8016B34
:1003F00001F8016B5B1EF9D12B0705D40023521EB7
:100400000DD401F8013BFAE710F8013BCB1A921C1E
:1004100003E013F8015B01F8015B521EF9D5A1421C
:10042000D8D3002070BD000080B586B0049040F2A3
:100430001472C2F20002002050611061D06090601E
:10044000506010602C211170049A0121019112F06A
:10045000D9F801990390049A084612F0D3F8029053
:10046000039818B1FFE70398059008E0029818B1C7
:10047000FFE70298059002E000200590FFE705984D
:1004800006B080BD80B582B012F06AFB0190019881
:1004900002B080BD80B584B0ADF80A0001918DF83E
:1004A0000320BDF80A0040F2FE71884207DCFFE736
:1004B000019820B1FFE79DF8030020B9FFE76FF036
:1004C0000100039008E0BDF80A0001999DF803209F
:1004D00012F0E0FB0390FFE7039804B080BD00003A
:1004E00080B584B0ADF80E0012F0D0FB40F2406051
:1004F000C2F2000012F052FA0190019818B9FFE719
:1005000011F052FD0DE00198B0F1FF3F08DCFFE76C
:1005100040F68861C2F20001886901308861FFE716
:10052000FFE740F27060C2F2000012F059FA40B1E9
:10053000FFE740F68861C2F20001C8690130C86176
:10054000FFE740F2A060C2F2000012F097FA40B15B
:10055000FFE740F68861C2F20001086A01300862D4
:10056000FFE711F005FE40F26C00C2F200000078D7
:1005700038B9FFE740F22841C2F2000100200860CC
:1005800047E040F6E060C2F20000407990B9FFE732
:1005900040F6E060C2F20000C07858B9FFE740F6CC
:1005A000E060C2F20000007920B9FFE76420ADF8F6
:1005B000020003E00520ADF80200FFE7BDF80E20C1
:1005C00040F22840C2F20000016811440160006856
:1005D000BDF8021088421CD3FFE740F22841C2F266
:1005E00000010020086005F077F8CDF80A0040F21D
:1005F00002300DF10A01042212F04CFB40B1FFE77A
:1006000040F68861C2F20001486901304861FFE7A5
:10061000FFE704B080BD000080B584B08DF80B000A
:10062000002001909DF80B0070B1FFE79DF80B00D2
:10063000012809D0FFE79DF80B00022804D0FFE74E
:100640006FF0010003901DE09DF80B0040F26D017A
:10065000C2F2000108709DF80B0028B9FFE70020E6
:1006600002F02AF901900AE09DF80B00012805D15B
:10067000FFE7012002F020F90190FFE7FFE7019872
:100680000390FFE7039804B080BD000080B582B0FE
:10069000ADF80600BDF8060040B1FFE740F26D007E
:1006A000C2F200000078022801D0FFE70BE002F060
:1006B000E5F840B1FFE740F68861C2F20001086D3D
:1006C00001300865FFE702B080BD000080B584B04E
:1006D00040F60400C4F20240006800F0400100202F
:1006E000B0EB911F04D1FFE712F022F8039065E010
:1006F00002F0F0F820B1FFE74FF0FF3003905DE02B
:100700000DF1070002F0EAF820B1FFE74FF0FF30EB
:10071000039053E09DF8070020B9FFE712F008F8B6
:1007200003904BE09DF807008DF8060004F0D4FF1D
:100730000290FFE704F0D0FF0299401AC0087C281D
:100740001DD8FFE70DF1070002F0C8F820B1FFE760
:100750004FF0FF30039031E09DF807109DF8060040
:1007600008408DF806009DF8060020B9FFE711F05B
:10077000DFFF039022E00A2003F0BAFDDAE7012050
:1007800005F0D2F8022005F0CFF8082005F0CCF8EB
:10079000202005F0C9F840F64001C4F20241086883
:1007A00040F0FF00086040F60001C4F20241086812
:1007B00040F08000086000200390FFE7039804B039
:1007C00080BD000080B540F2D061C2F2000100207F
:1007D000087002F07FF880BD80B582B0ADF80600E9
:1007E00040F2D060C2F200000078F0B9FFE740F6B6
:1007F000E060C2F20000C078B0B1FFE740F6E06010
:10080000C2F20000007978B1FFE712F085F920B15B
:10081000FFE712F093F938B9FFE740F2D061C2F276
:10082000000101200870FFE714E00DF1050002F05F
:1008300055F840B1FFE740F68861C2F20001C86A8E
:100840000130C86206E09DF8050018B9FFE711F015
:100850006FFFFFE702B080BD80B584B08DF80B005C
:100860009DF80B00652804D3FFE76FF001000390AB
:1008700014E09DF80B0018B9FFE76A20019003E02F
:100880009DF80B000190FFE701988DF80A009DF894
:100890000A10002014F030FB0390FFE7039804B027
:1008A00080BD000080B582B0ADF8060040F6E06083
:1008B000C2F200008079012807D0FFE740F22C4106
:1008C000C2F200010020087024E040F22C40C2F285
:1008D0000000007870B9FFE704F0FEFE40F23041FE
:1008E000C2F20001086040F22C41C2F20001012076
:1008F00008700FE004F0F0FE40F23041C2F2000157
:100900000968401A00097C2801D8FFE702E011F0CD
:100910009FFFFFE702B080BDFFE7FEE784B00290D3
:100920000191009202980199884203DAFFE7019849
:1009300003900AE002980099884203DDFFE70098DF
:10094000039002E002980390FFE7039804B0704719
:1009500085B004900498006A039004980068406988
:1009600020F4430003990843049909684861049BF3
:100970001A6958699969DB69184310430843039061
:100980000498016801205022C4F2020291420290B0
:1009900000F06781FFE70498016801205022C5F24A
:1009A00002029142029000F05C81FFE70498016826
:1009B0000120D022C4F202029142029000F0518143
:1009C000FFE7049801680120D022C5F2020291429B
:1009D000029000F04681FFE704980168012040F290
:1009E0005012C4F202029142029000F03A81FFE7F5
:1009F00004980168012040F25012C5F202029142AF
:100A0000029000F02E81FFE704980168012040F277
:100A1000D012C4F202029142029000F02281FFE75C
:100A200004980168012040F2D012C5F202029142FE
:100A3000029000F01681FFE704980168012040F25F
:100A40005022C4F202029142029000F00A81FFE7B4
:100A500004980168012040F25022C5F2020291423E
:100A6000029000F0FE80FFE704980168012040F248
:100A7000D022C4F202029142029000F0F280FFE71D
:100A800004980168012040F2D022C5F2020291428E
:100A9000029000F0E680FFE704980168012040F230
:100AA0005032C4F202029142029000F0DA80FFE775
:100AB00004980168012040F25032C5F202029142CE
:100AC000029000F0CE80FFE704980168012040F218
:100AD000D032C4F202029142029000F0C280FFE7DD
:100AE00004980168012040F2D032C5F2020291421E
:100AF000029000F0B680FFE704980168012041F2FF
:100B00005002C4F202029142029000F0AA80FFE774
:100B100004980168012041F25002C5F2020291429C
:100B2000029000F09E80FFE704980168012041F2E6
:100B3000D002C4F202029142029000F09280FFE7DC
:100B400004980168012041F2D002C5F202029142EC
:100B5000029000F08680FFE704980168012041F2CE
:100B60005012C4F20202914202907AD0FFE7049838
:100B70000168012041F25012C5F202029142029036
:100B80006FD0FFE704980168012041F2D012C4F24F
:100B900002029142029064D0FFE7049801680120AC
:100BA00041F2D012C5F202029142029059D0FFE701
:100BB00004980168012041F25022C4F202029142DD
:100BC00002904ED0FFE704980168012041F25022C4
:100BD000C5F202029142029043D0FFE704980168F7
:100BE000012041F2D022C4F202029142029038D098
:100BF000FFE704980168012041F2D022C5F2020209
:100C0000914202902DD0FFE704980168012041F243
:100C10005032C4F202029142029022D0FFE70498BF
:100C20000168012041F25032C5F202029142029065
:100C300017D0FFE704980168012041F2D032C4F2D6
:100C40000202914202900CD0FFE7049800684EF631
:100C50003041CAF6FD710844B0FA80F040090290B4
:100C6000FFE70298C007B8B1FFE70498426A836AB9
:100C7000C06A0021CFF6F07101EB035101F07C71E5
:100C800008436FF00F0101EB021101F47C71014385
:100C9000039808430390FFE704980068006C00F095
:100CA00080200399084304990968086404998868B6
:100CB0000A791043096B084303900498C068B0F5A3
:100CC000806F40F07C81FFE704980168012050228A
:100CD000C4F202029142019000F06781FFE704989C
:100CE000016801205022C5F202029142019000F0F9
:100CF0005C81FFE7049801680120D022C4F202025F
:100D00009142019000F05181FFE7049801680120B1
:100D1000D022C5F202029142019000F04681FFE725
:100D200004980168012040F25012C4F2020291427C
:100D3000019000F03A81FFE704980168012040F239
:100D40005012C5F202029142019000F02E81FFE79D
:100D500004980168012040F2D012C4F202029142CC
:100D6000019000F02281FFE704980168012040F221
:100D7000D012C5F202029142019000F01681FFE705
:100D800004980168012040F25022C4F2020291420C
:100D9000019000F00A81FFE704980168012040F209
:100DA0005022C5F202029142019000F0FE80FFE75E
:100DB00004980168012040F2D022C4F2020291425C
:100DC000019000F0F280FFE704980168012040F2F2
:100DD000D022C5F202029142019000F0E680FFE7C6
:100DE00004980168012040F25032C4F2020291429C
:100DF000019000F0DA80FFE704980168012040F2DA
:100E00005032C5F202029142019000F0CE80FFE71D
:100E100004980168012040F2D032C4F202029142EB
:100E2000019000F0C280FFE704980168012040F2C1
:100E3000D032C5F202029142019000F0B680FFE785
:100E400004980168012041F25002C4F2020291426A
:100E5000019000F0AA80FFE704980168012041F2A8
:100E60005002C5F202029142019000F09E80FFE71D
:100E700004980168012041F2D002C4F202029142BA
:100E8000019000F09280FFE704980168012041F290
:100E9000D002C5F202029142019000F08680FFE785
:100EA00004980168012041F25012C4F202029142FA
:100EB00001907AD0FFE704980168012041F25012B6
:100EC000C5F20202914201906FD0FFE704980168D9
:100ED000012041F2D012C4F202029142019064D08A
:100EE000FFE704980168012041F2D012C5F2020226
:100EF0009142019059D0FFE704980168012041F226
:100F00005022C4F20202914201904ED0FFE70498B1
:100F10000168012041F25022C5F202029142019083
:100F200043D0FFE704980168012041F2D022C4F2C7
:100F300002029142019038D0FFE704980168012035
:100F400041F2D022C5F20202914201902DD0FFE77A
:100F500004980168012041F25032C4F20202914229
:100F6000019022D0FFE704980168012041F250323D
:100F7000C5F202029142019017D0FFE70498016880
:100F8000012041F2D032C4F20202914201900CD011
:100F9000FFE7049800684EF63041CAF6FD71084438
:100FA000B0FA80F040090190FFE70198C00728B12E
:100FB000FFE7039840F480600390FFE70CE004989B
:100FC000C068B0F5007F05D1FFE7039840F40070DA
:100FD000039000E0FFE7FFE70498416B03980843A4
:100FE000039004980068406C42F20011C3F6C041BF
:100FF0000840039908430499096848640498016803
:101000000020886404980168012040F25032C4F244
:101010000202914200904ED0FFE70498016801203F
:1010200040F25032C5F202029142009043D0FFE7F5
:1010300004980168012040F2D032C4F202029142C9
:10104000009038D0FFE704980168012040F2D032C8
:10105000C5F20202914200902DD0FFE7049801688A
:10106000012041F25032C4F202029142009022D09B
:10107000FFE704980168012041F25032C5F20202F4
:101080009142009017D0FFE704980168012041F2D7
:10109000D032C4F20202914200900CD0FFE70498D3
:1010A00000684EF63041CAF6FD710844B0FA80F08F
:1010B00040090090FFE70098C00740B1FFE704989F
:1010C000016800204865049909688865FFE704986D
:1010D00001680020C86705B07047000085B0009027
:1010E000009B9869D9691A6A5B6A0493039202911A
:1010F00001909DED010ADDED020A9DED031ADDED83
:10110000041A05B07047000080B582B001900198C4
:1011100046F27021C0F6010100F0D8F8019800F005
:1011200003F802B080BD000080B58EB00D900D9A1E
:101130004FF07E50099000200A900B900C90099976
:101140000A9BDDF82CC0DDF830E0C2F824E0C2F8DC
:1011500020C0D36191610D9A06900790089006997E
:10116000079BDDF820C0C2F830C0D36291620D9AAF
:10117000012182F834100D9A0021C4F220119163EC
:101180000D9981F840000D9A039004900590039901
:10119000049BDDF814C0C2F84CC0936451640D9AEE
:1011A0000090019002900099019BDDF808C0C2F800
:1011B00058C0536511650D9981F85C000D9908665A
:1011C0000D9A516951660D9981F868000D99C866AC
:1011D0000D99486908670EB080BD000080B590B0D9
:1011E0000F908DED0E0A0F9890ED060A90ED073ADC
:1011F00090ED081A90ED092A23EE013A20EE020A3A
:1012000030EE030A21EE013AB6EE001A8DED011A16
:1012100031EE431A22EE022A71EE420A14F046F829
:101220008DED0D0A9DED0D0A8DED020A9DED0E0A64
:1012300000F0C0FC9DED011AB0EE402A9DED020ABF
:1012400030EE420A20EE010A8DED0C0A9DED0C0AEB
:1012500014F082F98DED080A002009900A909DEDA6
:101260000C0A14F053FDB0EE401A9FED170A30EE51
:10127000410A8DED0B0A0F9803909DED080ADDEDF4
:10128000090A9DED0A1ADDED0B1A90ED062AD0ED44
:10129000072A90ED083AD0ED093A00F07FFE039955
:1012A000CDED071A8DED061ACDED050A8DED040A78
:1012B0000498059A069BDDF81CC0C1F824C00B6297
:1012C000CA61886110B080BD0000008080B586B022
:1012D0000590049104980078059908700498406876
:1012E00005994860049890ED020AB5EE400AF1EEC7
:1012F00010FA05D1FFE79FED4C0A8DED030A09E0D6
:10130000049890ED020A9FED471A20EE010A8DED38
:10131000030AFFE79DED030A059880ED020A049891
:1013200090ED030AB5EE400AF1EE10FA05D1FFE7A1
:101330009FED3D0A8DED020A11E0049890ED030A3D
:1013400000F038FC14F0E2FCB6EE001A20EE010AC0
:10135000F0EE000A14F0A8F98DED020AFFE79DED0A
:10136000020A059880ED030A049890ED040AB5EE90
:10137000400AF1EE10FA05D1FFE79FED2B0A8DED43
:10138000010A11E0049890ED040A00F013FC14F037
:10139000BDFCB6EE001A20EE010AF0EE000A14F0D1
:1013A00083F98DED010AFFE79DED010A059880EDB7
:1013B000040A049840690599486105994869486696
:1013C000059948690867049890ED010AB5EE400A4E
:1013D000F1EE10FA04D0FFE70498406948B9FFE73E
:1013E00005994FF6FF70C7F67F70C86005990861D0
:1013F000FFE7059890F83400C00720B9FFE705998A
:1014000048688863FFE7059890ED011AB2EE040A78
:1014100030EE410AB0EE081A80EE010A80ED0F0AA4
:1014200006B080BD48E17A3FFFFF7F7F80B5CAB03C
:101430008DED491ACDED480A8DED470ACDED462ACE
:101440008DED452ACDED441A8DED434ACDED423A5E
:101450008DED413A4090CDED3F4A40994498459AF0
:10146000469B0B63CA6288629DED470AB0EEC00AD4
:10147000409890ED021AB4EE410AF1EE10FA1ADC2F
:10148000FFE79DED480AB0EEC00A409890ED021AC1
:10149000B4EE410AF1EE10FA0DDCFFE79DED490ACA
:1014A000B0EEC00A409890ED021AB4EE410AF1EE97
:1014B00010FA1CDDFFE7409B9869D9691A6A5B6ADC
:1014C0003E933D923C913B904098FFF72DFE409912
:1014D0003B983C9A3D9BDDF8F8C0C1F824C00B62F4
:1014E000CA6188614099012081F84000FFE7409877
:1014F00090F83400C00768B3FFE7409890ED0E0AFB
:1015000090ED0F1A9DED3F2A21EE021A30EE410AAE
:1015100080ED0E0A409890ED011A90ED0E0AB4EE9F
:10152000410AF1EE10FA09DBFFE7409890ED010A5D
:10153000B5EE400AF1EE10FA0BD1FFE7409948688A
:1015400088634099002081F83400409981F8400078
:10155000FFE7FFE740980CF061FF8DED3A1ACDED03
:10156000390A8DED380A0020379036903590409931
:10157000012081F85C009DED440ADDED450A9DEDFA
:10158000461A01F00FF8002879D1FFE7409804903F
:101590009DED440ADDED450A9DED461A01F054F833
:1015A0008DED311ACDED300A8DED2F0A9DED2F0A0C
:1015B000DDED300A9DED311ADDED381A9DED392A49
:1015C000DDED3A2A01F0C0FA04998DED341ACDED23
:1015D000330A8DED320A3298339A349BCB648A6495
:1015E0004864409890F83400C00790B9FFE74098ED
:1015F00090ED110AD0ED120A90ED131A00F0FEFFE3
:10160000409890ED031AB4EE410AF1EE10FA09DCAD
:10161000FFE74099002081F85C004099086E093886
:10162000086604E04099086E01300866FFE74099BB
:10163000086E496E884207DDFFE740990020486642
:10164000409981F85C0003E0409948694866FFE7EB
:1016500040984269006E0021FFF760F940990866E2
:10166000409890F85C00C00740B9FFE7409A506C82
:10167000916CD26C379236913590FFE7FFE70020EE
:101680002E902D902C904099012081F868009DEDBE
:10169000410ADDED420A9DED431A00F083FF002868
:1016A00040F09780FFE740980CF040FF8DED2B1A3B
:1016B000CDED2A0A8DED290A409803909DED380A58
:1016C000DDED390A9DED3A1ADDED411A9DED422A14
:1016D000DDED432A00F098FE8DED221ACDED210AB2
:1016E0008DED200A9DED200ADDED210A9DED221AE7
:1016F00000F0AAFF8DED251ACDED240A8DED230A09
:101700009DED230ADDED240A9DED251ADDED291A54
:101710009DED2A2ADDED2B2A01F016FA03998DEDB5
:10172000281ACDED270A8DED260A2698279A289BA0
:101730008B654A650865409890F83400C00790B9F9
:10174000FFE7409890ED140AD0ED150A90ED161AB7
:1017500000F054FF409890ED041AB4EE410AF1EE07
:1017600010FA09DCFFE74099002081F868004099F1
:10177000C86E0938C86604E04099C86E0130C86672
:10178000FFE74099C86E096F884207DDFFE740997F
:1017900000200867409981F8680003E04099486993
:1017A0000867FFE740984269C06E0021FFF7B6F86E
:1017B0004099C866409890F86800C00740B9FFE7B4
:1017C000409A106D516D926D2E922D912C90FFE7E5
:1017D000FFE7B6EE000A00F0EDF9F0EE401A9DEDDD
:1017E000470ADDED480A9DED491A00F057FF8DEDDF
:1017F0001F1ACDED1E0A8DED1D0A9DED350ADDED9A
:10180000360A9DED371ADDED2C1A9DED2D2ADDED02
:101810002E2A00F09DFD8DED161ACDED150A8DEDE9
:10182000140A4098D0ED0E1A9DED140ADDED150A4C
:101830009DED161A00F032FF8DED191ACDED180A44
:101840008DED170A9DED1D0ADDED1E0A9DED1F1A97
:10185000DDED171A9DED182ADDED192A00F078FD4F
:101860008DED1C1ACDED1B0A8DED1A0A40980190E2
:10187000DDED3F1A9DED1A0ADDED1B0A9DED1C1AE8
:1018800000F00CFF01988DED0B1ACDED0A0A8DEDDD
:10189000090A90ED060AD0ED070A90ED081AD0ED7E
:1018A000091A9DED092ADDED0A2A9DED0B3A00F09B
:1018B000C7FC0198CDED0F1A8DED0E1ACDED0D0A76
:1018C0008DED0C0A90ED060AD0ED070A90ED081A8E
:1018D000D0ED091A9DED0C2ADDED0D2A9DED0E3A95
:1018E000DDED0F3A00F07EFA0199CDED131A8DED82
:1018F000121ACDED110A8DED100A1098119A129B53
:10190000DDF84CC0C1F824C00B62CA618861409800
:10191000029090ED060AD0ED070A90ED081AD0ED7E
:10192000091A00F007FB0299CDED081A8DED071A90
:10193000CDED060A8DED050A0598069A079BDDF8A0
:1019400020C0C1F824C00B62CA6188614AB080BD62
:1019500080B58CB08DED0B1ACDED0A0A8DED090A1C
:10196000CDED082A8DED072ACDED061A05908DEDF7
:10197000043A05980021019102910391DDED044A9A
:101980009DED090ADDED0A0A9DED0B1ADDED061A43
:101990009DED072ADDED082A9DED013ADDED023AC5
:1019A0009DED034AFFF742FD059890F83400C0070B
:1019B00030B1FFE705989FED030AFFF70FFCFFE743
:1019C0000CB080BD0000000080B582B08DED000A33
:1019D0009DED000ABFEE001AB4EE410AF1EE10FAD6
:1019E00006DCFFE740F6DB70CBF6C970019016E02D
:1019F0009DED000AB7EE001AB4EE410AF1EE10FABE
:101A000006DBFFE740F6DB70C3F6C970019006E025
:101A10009DED000A13F0B4FB8DED010AFFE79DED8B
:101A2000010A02B080BD000085B0049003919DEDD5
:101A3000030AB8EE401AB7EE000A80EE010A9FEDE5
:101A40000C1A20EE010A049880ED000A039804990C
:101A500048600499002088600499009001900290E9
:101A60000098019A029B4B610A61C86005B07047FB
:101A7000FDAD003E80B592B08DED0E1ACDED0D0A94
:101A80008DED0C0A0B900B989DED0C0ADDED0D0A07
:101A90009DED0E1AD0ED031A90ED042AD0ED052A23
:101AA00000F07EFE8DED0A1ACDED090A8DED080AD3
:101AB000089809990A9A0E920D910C909DED0C0AC6
:101AC000B0EEC00AB0EE081AB4EE410AF1EE10FA18
:101AD00018DCFFE79DED0D0AB0EEC00AB0EE081A63
:101AE000B4EE410AF1EE10FA0CDCFFE79DED0E0AB0
:101AF000B0EEC00AB0EE081AB4EE410AF1EE10FAE8
:101B00000ADDFFE70B99002088600C980D990E9A6A
:101B1000119210910F9045E00B98416880688842BF
:101B20000BD2FFE70B998868013088600C980D99FB
:101B30000E9A119210910F9034E00B980190D0ED15
:101B4000001A9DED0C0ADDED0D0A9DED0E1A00F058
:101B5000CFFD01988DED041ACDED030A8DED020A3B
:101B600090ED030AD0ED040A90ED051ADDED021A9E
:101B70009DED032ADDED042A00F018FC01998DED9E
:101B8000071ACDED060A8DED050A0598069A079B02
:101B90004B610A61C8600C980D990E9A11921091D0
:101BA0000F90FFE79DED0F0ADDED100A9DED111A74
:101BB00012B080BD81B08DED000A9DED000A9FED51
:101BC000031A20EE010A01B0704700BF35FA8E3CBF
:101BD00082B08DED010A01980090009941F2124007
:101BE000C5F61F70A0EB610000909DED000A9DED11
:101BF000011A9FED082A21EE021A21EE001A21EEA9
:101C0000001A9FED052A31EE021A20EE010A02B0F9
:101C1000704700BF12D336BFFF51D83FF0B58FB029
:101C2000189E179D169CDDF854E0DDF850C00B9609
:101C30000A950994CDF820E0CDF81CC006930592D2
:101C4000049103908DED021ACDED010A8DED000A8D
:101C50009DED031A9DED043A9DED050A9DED004AA8
:101C60009DED015A9DED022A23EE053A21EE041A5C
:101C700031EE031A20EE020A30EE010A8DED0C0A55
:101C80009DED061A9DED073A9DED080A9DED004A6F
:101C90009DED015A9DED022A23EE053A21EE041A2C
:101CA00031EE031A20EE020A30EE010A8DED0D0A24
:101CB0009DED091A9DED0A3A9DED0B0A9DED004A36
:101CC0009DED015A9DED022A23EE053A21EE041AFC
:101CD00031EE031A20EE020A30EE010A8DED0E0AF3
:101CE0009DED0C0ADDED0D0A9DED0E1A0FB0F0BD55
:101CF000F0B5A1B02A9E299D289CDDF89CE0DDF876
:101D000098C08DED1D1ACDED1C0A8DED1B0A1A969B
:101D100019951894CDF85CE0CDF858C0159314923D
:101D200013911290CDED112A8DED102ACDED0F1AE1
:101D30008DED0E4ACDED0D3A8DED0C3A9DED1B0A61
:101D4000DDED1C0A9DED1D1ADDED0C1A9DED0D2A31
:101D5000DDED0E2A00F0F6FC8DED081ACDED070A38
:101D60008DED060A9DED060ADDED070A9DED081AC8
:101D7000DDED0F1A9DED102ADDED112A00F0B6FB06
:101D80008DED0B1ACDED0A0A8DED090A1298139903
:101D9000149A159BDDF858C0179C189D199E1A9F20
:101DA0009DED090ADDED0A0A9DED0B1AEE46CEF80F
:101DB0001070CEF80C60CEF80850CEF80440CEF883
:101DC00000C0FFF72BFF8DED201ACDED1F0A8DED22
:101DD0001E0A9DED1E0ADDED1F0A9DED201A21B0A1
:101DE000F0BD00008CB0CDED071A8DED061ACDEDDB
:101DF000050A8DED040ACDED033A8DED023ACDEDE5
:101E0000012A8DED002A9DED040A9DED001A30EEA9
:101E1000010A8DED080A9DED050A9DED011A30EECF
:101E2000010A8DED090A9DED060A9DED021A30EEBC
:101E3000010A8DED0A0A9DED070A9DED031A30EEA9
:101E4000010A8DED0B0A9DED080ADDED090A9DEDF5
:101E50000A1ADDED0B1A0CB0704700008CB0CDED06
:101E6000071A8DED061ACDED050A8DED040ACDEDAC
:101E7000033A8DED023ACDED012A8DED002A9DED5C
:101E8000040A9DED001A20EE010A8DED080A9DED71
:101E9000050A9DED011A20EE010A8DED090A9DED5E
:101EA000060A9DED021A20EE010A8DED0A0A9DED4B
:101EB000070A9DED031A20EE010A8DED0B0A9DED38
:101EC000080ADDED090A9DED0A1ADDED0B1A0CB0CA
:101ED0007047000080B588B0CDED071A8DED061A69
:101EE000CDED050A8DED040A9DED042ADDED052AF0
:101EF0009DED063ADDED073AB0EE420AF0EE620AD9
:101F0000B0EE431AF0EE631AFFF7A8FFCDED031A07
:101F10008DED021ACDED010A8DED000A9DED000A4E
:101F2000DDED010A9DED021ADDED031A00F008F95E
:101F300008B080BD80B588B0CDED031A8DED021AD2
:101F4000CDED010A8DED000A9DED000ADDED010ADF
:101F50009DED021ADDED031AFFF7BCFFFFF738FE17
:101F6000B0EE402A9DED000ADDED010A9DED021A5A
:101F7000DDED031A00F0AEF8CDED071A8DED061A6F
:101F8000CDED050A8DED040A9DED040ADDED050A8F
:101F90009DED061ADDED071A08B080BD8CB0CDEDC1
:101FA000071A8DED061ACDED050A8DED040ACDED6B
:101FB000033A8DED023ACDED012A8DED002A9DED1B
:101FC000040A9DED055A9DED063A9DED071A9DED1B
:101FD000006A9DED017A9DED024A9DED032A25EEF2
:101FE000075A20EE060A30EE450A23EE043A30EE98
:101FF000430A21EE021A30EE410A8DED080A9DEDEA
:10200000007A9DED016A9DED022A9DED034A9DED4A
:10201000043A9DED055A9DED060A9DED071A25EE41
:10202000075A23EE063A33EE053A20EE040A30EE64
:10203000030A21EE021A30EE410A8DED090A9DEDE8
:10204000004A9DED012A9DED026A9DED037A9DED0A
:10205000043A9DED055A9DED061A9DED070A25EE01
:10206000075A23EE063A33EE453A21EE041A31EED2
:10207000031A20EE020A30EE010A8DED0A0A9DEDE8
:10208000002A9DED014A9DED027A9DED036A9DEDCA
:10209000041A9DED055A9DED063A9DED070A25EEC1
:1020A000075A21EE061A31EE051A23EE043A31EEF4
:1020B000431A20EE020A30EE010A8DED0B0A9DED67
:1020C000080ADDED090A9DED0A1ADDED0B1A0CB0C8
:1020D0007047000089B0CDED041A8DED031ACDEDE7
:1020E000020A8DED010A8DED002A9DED010A9DED9C
:1020F000001A20EE010A8DED050A9DED020A9DED04
:10210000001A20EE010A8DED060A9DED030A9DEDF1
:10211000001A20EE010A8DED070A9DED040A9DEDDF
:10212000001A20EE010A8DED080A9DED050ADDED8D
:10213000060A9DED071ADDED081A09B07047000088
:1021400084B0CDED031A8DED021ACDED010A8DEDAF
:10215000000A9DED000A9DED013A9DED022A9DEDDC
:10216000031A30EE030A30EE020A30EE010A04B020
:102170007047000080B588B0CDED041A8DED031ACC
:10218000CDED020A8DED010A9DED011A9DED023A99
:102190009DED030A9DED042A21EE033A20EE020A8A
:1021A00030EE030A22EE022A21EE011A31EE021A63
:1021B000B6EE002A8DED002A71EE420A13F076F891
:1021C00000F0B8F88DED050A9DED010A9DED021AAB
:1021D0009DED032A9DED043A21EE031A20EE020A3A
:1021E00030EE410A30EE000AFFF7EEFB00F0A2F8F5
:1021F0009DED002A8DED060A9DED011A9DED023A36
:102200009DED030A9DED044A21EE044A23EE000AE7
:1022100030EE040A23EE033A21EE011A31EE031ADE
:1022200071EE420A13F042F800F084F88DED070ACF
:102230009DED050ADDED060A9DED071A08B080BD8B
:102240008BB0CDED061A8DED051ACDED040A8DED9E
:10225000030A8DED023ACDED012A8DED002A9DEDA8
:10226000043A9DED050A9DED061A9DED004A9DED8F
:10227000015A9DED022A20EE450A23EE043A30EE83
:10228000430A21EE021A30EE410A8DED070A9DED58
:10229000004A9DED012A9DED025A9DED030A9DED38
:1022A000053A9DED061A23EE053A20EE040A30EEBB
:1022B000030A21EE021A30EE410A8DED080A9DED67
:1022C000002A9DED014A9DED025A9DED031A9DEDF8
:1022D000043A9DED060A23EE053A21EE041A31EE8A
:1022E000431A20EE020A30EE010A8DED090A9DED37
:1022F000002A9DED015A9DED024A9DED030A9DEDD8
:10230000043A9DED051A23EE053A20EE040A30EE5C
:10231000030A21EE021A30EE410A8DED0A0A9DED04
:10232000070ADDED080A9DED091ADDED0A1A0BB06A
:102330007047000081B08DED000A9DED000A9FED11
:10234000031A20EE010A01B0704700BFE02E65427B
:1023500089B08DED051ACDED040A8DED030ACDEDA2
:10236000022A8DED012ACDED001A9DED030A9DEDA7
:10237000001A30EE010A8DED060A9DED040A9DED6E
:10238000011A30EE010A8DED070A9DED050A9DED5B
:10239000021A30EE010A8DED080A9DED060ADDED08
:1023A000070A9DED081A09B07047000089B08DED4D
:1023B000051ACDED040A8DED030ACDED022A8DED4F
:1023C000012ACDED001A9DED030A9DED001A30EEB5
:1023D000010A8DED060A9DED040A9DED011A30EE0D
:1023E000010A8DED070A9DED050A9DED021A30EEFA
:1023F000010A8DED080A9DED060ADDED070A9DED47
:10240000081A09B07047000089B08DED051ACDEDAE
:10241000040A8DED030ACDED022A8DED012ACDEDE2
:10242000001A9DED013A9DED022A9DED040A9DEDF5
:10243000051A21EE031A20EE020A30EE410A8DED54
:10244000060A9DED031A9DED050A9DED002A9DEDFE
:10245000023A21EE031A20EE020A30EE410A8DED17
:10246000070A9DED003A9DED012A9DED030A9DEDC1
:10247000041A21EE031A20EE020A30EE410A8DED15
:10248000080A9DED060ADDED070A9DED081A09B060
:102490007047000080B58AB08DED091ACDED080AAD
:1024A0008DED070ACDED062A8DED052ACDED041A36
:1024B0009DED070ADDED080A9DED091ADDED041A10
:1024C0009DED052ADDED062A00F03EF88DED031A9C
:1024D000CDED020A8DED010A9DED010ADDED020A46
:1024E0009DED031A00F08AF90AB080BD89B08DED28
:1024F000051ACDED040A8DED030ACDED022A8DED0E
:10250000012ACDED001A9DED030A9DED001A20EE83
:10251000010A8DED060A9DED040A9DED011A20EEDB
:10252000010A8DED070A9DED050A9DED021A20EEC8
:10253000010A8DED080A9DED060ADDED070A9DED05
:10254000081A09B07047000089B08DED051ACDED6D
:10255000040A8DED030ACDED022A8DED012ACDEDA1
:10256000001A9DED030A9DED001A20EE010A8DED83
:10257000060A9DED040A9DED011A20EE010A8DED7B
:10258000070A9DED050A9DED021A20EE010A8DED68
:10259000080A9DED060ADDED070A9DED081A09B04F
:1025A0007047000084B08DED031ACDED020A8DED69
:1025B000010A9DED010A0020B5EE400AF1EE10FA85
:1025C000009015D1FFE79DED020A0020B5EE400A0C
:1025D000F1EE10FA00900BD1FFE79DED030A002009
:1025E000B5EE400AF1EE10FA08BF01200090FFE7B7
:1025F000009800F0010004B07047000080B586B07C
:102600008DED051ACDED040A8DED030ADDED031AFB
:102610009DED042ADDED052AB0EE610AF0EE420AD6
:10262000B0EE621AFFF790FF8DED021ACDED010AB0
:102630008DED000A9DED000ADDED010A9DED021A07
:1026400000F0DCF806B080BD80B586B08DED021AD2
:10265000CDED010A8DED000A9DED000ADDED010AC8
:102660009DED021AFFF7CAFFFFF7B2FAF0EE401A2B
:102670009DED000ADDED010A9DED021A00F00EF855
:102680008DED051ACDED040A8DED030A9DED030ACB
:10269000DDED040A9DED051A06B080BD87B08DED15
:1026A000031ACDED020A8DED010ACDED001A9DED64
:1026B000010A9DED001A20EE010A8DED040A9DED40
:1026C000020A9DED001A20EE010A8DED050A9DED2E
:1026D000030A9DED001A20EE010A8DED060A9DED1C
:1026E000040ADDED050A9DED061A07B070470000EB
:1026F00087B08DED031ACDED020A8DED010ACDED07
:10270000001A9DED010A9DED001A20EE010A8DEDE3
:10271000040A9DED020A9DED001A20EE010A8DEDDE
:10272000050A9DED030A9DED001A20EE010A8DEDCC
:10273000060A9DED040ADDED050A9DED061A07B0B7
:102740007047000089B08DED051ACDED040A8DEDBE
:10275000030ACDED022A8DED012ACDED001A9DED83
:10276000030A9DED001A30EE410A8DED060A9DED3B
:10277000040A9DED011A30EE410A8DED070A9DED28
:10278000050A9DED021A30EE410A8DED080A9DED15
:10279000060ADDED070A9DED081A09B07047000032
:1027A00089B08DED051ACDED040A8DED030ACDED4E
:1027B000022A8DED012ACDED001A9DED030A9DED53
:1027C000001A30EE410A8DED060A9DED040A9DEDDA
:1027D000011A30EE410A8DED070A9DED050A9DEDC7
:1027E000021A30EE410A8DED080A9DED060ADDED74
:1027F000070A9DED081A09B07047000083B08DEDFF
:10280000021ACDED010A8DED000A9DED000A9DED45
:10281000012A9DED021A30EE020A30EE010A03B0E1
:10282000704700007047000080B582B08DF8070047
:1028300040F2B800C2F20000026A9DF8071090470B
:1028400002B080BD80B582B08DF8070040F2F40080
:10285000C2F20000026A9DF80710904702B080BDE6
:1028600080B582B08DF8070040F23010C2F200004F
:10287000026A9DF80710904702B080BD80B582B013
:1028800040F25C20C2F20000426A6946904720B1E3
:10289000FFE74FF0FF3001900BE040F25C20C2F206
:1028A0000000026A0099B1FA81F14909904701904C
:1028B000FFE7019802B080BD80B582B08DF80700B7
:1028C00040F25C20C2F20000026A9DF807109047B7
:1028D00002B080BD80B50DF06BFC80BD80B582B0CC
:1028E000019001980DF096FC02B080BD80B586B0D5
:1028F00005900491039200200290FFE702980228BD
:102900004CDCFFE70598029A00EB820090ED000A8C
:1029100040F23840C2F2000000EB820040F20401B5
:10292000C2F20001009101EB82010FF0D7FA049886
:10293000029A00EB820090ED000A40F24440C2F29D
:10294000000000EB820040F21001C2F20001019190
:1029500001EB82010FF0C2FA009A0198059B0299DF
:1029600003EB810393ED000A02EB8102D2ED000A32
:10297000049A02EB810292ED001A00EB8100D0ED87
:10298000001A0DF04FFB0398029900EB810080EDD7
:10299000000AFFE7029801300290AFE706B080BD61
:1029A00080B5102002F0BCFC80BD000072B6FFE7CD
:1029B000FEE7000080B540F6F000C2F2000002F031
:1029C00069F880BD80B540F6F000C2F2000002F068
:1029D00061F880BD83B002904AF60040C4F2000066
:1029E0000090029800684AF60001C4F20001884293
:1029F00005D1FFE7009800F554700090FFE70098BC
:102A00000299086402980068D0F8800020F4F81059
:102A1000029A1168526B40EA0240C1F880000098A7
:102A200070300299486402980068D0F8800020F065
:102A30007060029A1168926B40EA0260C1F88000EF
:102A40000098B03002998864009800F5C47002992B
:102A5000C864009800F5187002990865009800F5A0
:102A60001E700299486500980190FFE7019800994F
:102A700001F55471884208D2FFE7019900200860EF
:102A8000FFE7019804300190F0E703B070470000C1
:102A900088B007900691059204930698406848B95B
:102AA000FFE70698016882680069104340EA8140A8
:102AB000039009E0069801688268006910430843A2
:102AC00040F080400390FFE70698D0F820C0C1682E
:102AD00042698369C06940EA0C601843104340EAC8
:102AE000014002900798406D049901EBC10100EB91
:102AF000C100019003980199086001980430019089
:102B0000029801990860019804300190002000901B
:102B1000FFE700980699CA6846F26021C0F60101F5
:102B2000895C88420DD2FFE70598009940580199C9
:102B30000860019804300190FFE70098043000908D
:102B4000E7E708B07047000080B58CB08DED081A3B
:102B5000CDED070A8DED060ACDED052A8DED042A8F
:102B6000CDED031A9DED060ADDED070A9DED081A6D
:102B7000DDED031A9DED042ADDED052AFFF78AFC41
:102B8000B5EE400AF1EE10FA23DAFFE79DED060AF2
:102B9000DDED070A9DED081ADDED031A9DED042A0F
:102BA000DDED052AFFF730FC8DED021ACDED010AAF
:102BB0008DED000A9DED000ADDED010A9DED021A82
:102BC000FFF742FD8DED0B1ACDED0A0A8DED090AD6
:102BD00014E09DED060ADDED070A9DED081ADDED16
:102BE000031A9DED042ADDED052AFFF70DFC8DED9E
:102BF0000B1ACDED0A0A8DED090AFFE79DED090AD2
:102C0000DDED0A0A9DED0B1A0CB080BD80B540F6D3
:102C10005400C2F2000001F021F880BD40F21070B3
:102C2000C2F200000068704780B5C0B020901F91CC
:102C300000208DF87B001B901F98C0680021C4F213
:102C40007F01884201D0FFE700E0FFE7FFE720981F
:102C500090F85400012804D1FFE702208DF8870086
:102C6000FDE32099012081F85400FFE7FFE7209859
:102C700000680CF05DFA002840F0DD83FFE71F9844
:102C80000068012810D0FFE71F9800680221C0F2F9
:102C9000304188420DD1FFE71F98C0680021C4F27F
:102CA0007F01884205D1FFE7209800680CF0E0F929
:102CB000FFE7209800681F990A6849680CF040FAFD
:102CC000209800680CF034FA1A90209800680CF0F4
:102CD0000FFA19901A98002840F0B881FFE7199868
:102CE000002840F0B381FFE71F988068B0F1004FE3
:102CF0000ED1FFE7209800681F99096800220CF0A8
:102D00003DFA209800684FF000410CF0E3FA0CE027
:102D1000209800681F9A116892680CF02FFA20988A
:102D2000006800210CF0D6FAFFE71F98406920994F
:102D30000968C96801F01801890888401D901F982A
:102D4000006904281CD0FFE7209800681F990A68D2
:102D500009691D9B0CF064FA209800681F9A11699C
:102D600092690CF08FFA209800681F9A1169127FFF
:102D7000013AB2FA82F2520952060CF06FFA64E19B
:102D80002098006800210CF0A3F9000348B9FFE780
:102D90002098006800210CF09BF9C0F38460189023
:102DA00018E02098006800210CF092F990FAA0F049
:102DB0003E903E9820B9FFE720208DF8FF0005E007
:102DC0003E98B0FA80F08DF8FF00FFE79DF8FF0015
:102DD0001890FFE7189817901F980068000330B903
:102DE000FFE71F980068C0F38460169015E01F98F5
:102DF000006890FAA0F03C903C9820B9FFE72020B2
:102E00008DF8F70005E03C98B0FA80F08DF8F700F7
:102E1000FFE79DF8F7001690FFE71798169988428C
:102E200007D1FFE720980068002211460CF03EFA17
:102E3000FFE72098006801210CF04AF9000348B927
:102E4000FFE72098006801210CF042F9C0F384608C
:102E5000159018E02098006801210CF039F990FADB
:102E6000A0F03A903A9820B9FFE720208DF8EF00C3
:102E700005E03A98B0FA80F08DF8EF00FFE79DF892
:102E8000EF001590FFE7159814901F980068000355
:102E900030B9FFE71F980068C0F38460139015E015
:102EA0001F98006890FAA0F03890389820B9FFE792
:102EB00020208DF8E70005E03898B0FA80F08DF812
:102EC000E700FFE79DF8E7001390FFE714981399D8
:102ED000884207D1FFE720980068012100220CF00A
:102EE000E5F9FFE72098006802210CF0F1F80003F3
:102EF00048B9FFE72098006802210CF0E9F8C0F318
:102F00008460129018E02098006802210CF0E0F82C
:102F100090FAA0F03690369820B9FFE720208DF87F
:102F2000DF0005E03698B0FA80F08DF8DF00FFE7AB
:102F30009DF8DF001290FFE7129811901F9800682B
:102F4000000330B9FFE71F980068C0F38460109059
:102F500015E01F98006890FAA0F03490349820B9DA
:102F6000FFE720208DF8D70005E03498B0FA80F014
:102F70008DF8D700FFE79DF8D7001090FFE7119874
:102F80001099884207D1FFE72098006802210022AB
:102F90000CF08CF9FFE72098006803210CF098F8FA
:102FA000000348B9FFE72098006803210CF090F86F
:102FB000C0F384600F9018E02098006803210CF0A3
:102FC00087F890FAA0F03290329820B9FFE72020DD
:102FD0008DF8CF0005E03298B0FA80F08DF8CF0080
:102FE000FFE79DF8CF000F90FFE70F980E901F9816
:102FF0000068000330B9FFE71F980068C0F38460E1
:103000000D9015E01F98006890FAA0F0309030986D
:1030100020B9FFE720208DF8C70005E03098B0FA0E
:1030200080F08DF8C700FFE79DF8C7000D90FFE71F
:103030000E980D99884207D1FFE720980068032178
:1030400000220CF033F9FFE7FFE7FFE72098006864
:103050000CF05EF8002840F04481FFE720980068FB
:103060001F9A1168D2680CF0A5F81F98C06800215B
:10307000C4F27F01884240F03381FFE72098006866
:103080000C901F980068000330B9FFE71F98006894
:10309000C0F384600B9015E01F98006890FAA0F0D0
:1030A0002E902E9820B9FFE720208DF8BF0005E074
:1030B0002E98B0FA80F08DF8BF00FFE79DF8BF00B2
:1030C0000B90FFE70B98013000F01F0009287DD816
:1030D000FFE71F980068000330B9FFE71F980068FA
:1030E000C0F384600A9015E01F98006890FAA0F081
:1030F0002C902C9820B9FFE720208DF8B70005E030
:103100002C98B0FA80F08DF8B700FFE79DF8B70073
:103110000A90FFE70A98013000F01F00800609902E
:103120001F980068000330B9FFE71F980068C0F3DC
:103130008460089015E01F98006890FAA0F02A902B
:103140002A9820B9FFE720208DF8AF0005E02A98E3
:10315000B0FA80F08DF8AF00FFE79DF8AF0008905F
:10316000FFE709980899013101F01F020121914000
:10317000084307901F980068000330B9FFE71F98C5
:103180000068C0F38460069015E01F98006890FA0C
:10319000A0F02890289820B9FFE720208DF8A700FC
:1031A00005E02898B0FA80F08DF8A700FFE79DF8B9
:1031B000A7000690FFE707980699013101F01F016B
:1031C00001EB410140EA0150059082E01F98006840
:1031D000000330B9FFE71F980068C0F384600490D3
:1031E00015E01F98006890FAA0F02690269820B964
:1031F000FFE720208DF89F0005E02698B0FA80F0C8
:103200008DF89F00FFE79DF89F000490FFE704986A
:10321000013000F01F00800603901F980068000333
:1032200030B9FFE71F980068C0F38460029015E092
:103230001F98006890FAA0F02490249820B9FFE726
:1032400020208DF8970005E02498B0FA80F08DF8E2
:103250009700FFE79DF897000290FFE70398029917
:10326000013101F01F0201219140084301901F9894
:103270000068000330B9FFE71F980068C0F384605E
:10328000009015E01F98006890FAA0F02290229814
:1032900020B9FFE720208DF88F0005E02298B0FAD2
:1032A00080F08DF88F00FFE79DF88F000090FFE71A
:1032B00001990098013000F01F0000EB400200204F
:1032C000CFF6206000EB0250084340F000700590FC
:1032D000FFE70C9805991F9A92680BF04FFFFFE7E4
:1032E000FFE71F98408848F20801084200F0A280DA
:1032F000FFE748F20030C4F202200BF0E1FE1C9020
:103300001F9800680021CCF22131884233D1FFE7B9
:103310009DF87200000600282DD4FFE72098006871
:1033200048F20001C4F20221884223D1FFE71C9831
:1033300040F4000148F20030C4F202200BF062FFBA
:1033400040F21C00C2F200000068800942F663519E
:10335000C0F23E51A0FB01108109022000EB4100A8
:103360001B90FFE71B9820B1FFE71B9801381B90CB
:10337000F8E7FFE75DE01F9800680021C4F22931FB
:10338000884219D1FFE79DF87300C007A0B9FFE795
:103390002098006848F20011C4F2022188420AD144
:1033A000FFE71C9840F0807148F20030C4F2022020
:1033B0000BF028FFFFE73BE01F9800680021CCF2EC
:1033C000527188421AD1FFE79DF87200400600282A
:1033D00014D4FFE72098006848F20001C4F20221EB
:1033E00088420AD1FFE71C9840F4800148F200307F
:1033F000C4F202200BF006FFFFE718E01F980068F8
:103400000021C4F25A7188420FD1FFE7209800686A
:1034100048F20001C4F20221884205D0FFE720985B
:1034200000680BF031FEFFE700E0FFE7FFE7FFE792
:10343000FFE7FFE708E02099886D40F020008865ED
:1034400001208DF87B00FFE7FFE72099002081F83D
:103450005400FFE79DF87B008DF88700FFE79DF89B
:10346000870040B080BD000080B588B00690002085
:103470008DF817000190069820B9FFE701208DF81C
:103480001F004FE10698006940B1FFE7069890F8E9
:103490002000012801D1FFE7FFE7FFE70698806DD4
:1034A00050B9FFE7069800F041F906990020C86579
:1034B000069981F85400FFE7069800680BF020FE9B
:1034C00028B1FFE7069800680BF0C6FDFFE70698F5
:1034D00000680BF025FEF0B9FFE7069800680BF0D6
:1034E000DFFD40F21C00C2F200000068800942F6D5
:1034F0006351C0F23E51A0FB01108109022000EB94
:1035000041000190FFE7019820B1FFE701980138E1
:103510000190F8E7FFE7069800680BF001FE70B92C
:10352000FFE70699886D40F0100088650699C86D20
:1035300040F00100C86501208DF81700FFE70698EC
:1035400000680BF0F5FD03900698806DC00600281A
:1035500000F1DA80FFE70398002840F0D580FFE70C
:103560000698806D40F0020020F48070069988650E
:10357000069800680BF0CCFDE0B9FFE748F20000C8
:10358000C4F202200BF0C4FD009048F20010C4F217
:1035900002200BF0BDFD01460098084348B9FFE743
:1035A0000698416848F20030C4F202200BF01CFE7D
:1035B000FFE7FFE706994A7E886B40EA42308A6857
:1035C000CB681843104391F8201040EA0140049062
:1035D000069890F8200001280BD1FFE70698416A71
:1035E0000020CFF6FE7000EB4141049808430490A0
:1035F000FFE70698806A50B1FFE70699886AC96AB2
:1036000000F478700143049808430490FFE706989B
:103610000068C06844F20701CFF6F07108400499D1
:10362000084306990968C86006980068006920F098
:103630004060069A1168126B104308610698006892
:103640000BF056FD02900398E8BBFFE70298D0BB51
:10365000FFE70699087E91F83410800340EA4100A4
:10366000049006980068C06844F2020188430499F7
:10367000084306990968C860069890F83C0001283C
:1036800019D1FFE706980068006940F2FD7120EA51
:103690000102069B1968186CD3F844E0D3F848C0BF
:1036A00040EA0E0040EA0C00DB6C1843104340F087
:1036B0000100086106E006980168086920F0010031
:1036C0000861FFE7FFE70698006901280CD1FFE7D2
:1036D00006980068006B20F00F00069A1168D26906
:1036E000013A1043086306E006980168086B20F071
:1036F0000F000863FFE70698806D40F0010020F09E
:1037000002000699886508E00699886D40F010006F
:10371000886501208DF81700FFE79DF817008DF8E8
:103720001F00FFE79DF81F0008B080BD80B5CCB03A
:103730004B9000204A90499048904790469004A8AA
:103740004FF48471FCF7EAFD4B98006848F20001E1
:10375000C4F20221884245D1FFE7002005904FF4D2
:1037600000110491399004A805F07EFA18B1FFE722
:10377000FFF71CF9FFE740F27440C2F20000016855
:10378000013101600068012810D1FFE7FFE740F632
:103790008C40C4F20240016841F48061016000681D
:1037A00000F4806003900398FFE7FFE7FFE740F62F
:1037B0008C40C4F20240016841F0010101600068E0
:1037C00000F0010002900298FFE7022046900320DB
:1037D0004790002048900020C4F2022046A901F042
:1037E000D7FD4EE04B98006848F20011C4F2022168
:1037F000884245D1FFE7002005904FF40011049165
:10380000399004A805F030FA18B1FFE7FFF7CEF8B9
:10381000FFE740F27440C2F200000168013101602C
:103820000068012810D1FFE7FFE740F68C40C4F2A2
:103830000240016841F480610160006800F480602A
:1038400001900198FFE7FFE7FFE740F68C40C4F2E4
:103850000240016841F001010160006800F00100D0
:1038600000900098FFE70820469003204790002032
:1038700048900020C4F2022046A901F089FDFFE72C
:10388000FFE74CB080BD000087B006900591049220
:1038900000208DF80F001F2002909DF81400C00733
:1038A00020B9FFE701208DF80F004BE0FFE70299F8
:1038B000481E02900020019051B1FFE7059802993F
:1038C00001F01F0120FA01F1012088430190FFE778
:1038D0000198C00708B1FFE7E9E7049800901828AD
:1038E0002BD80099DFE801F028292929292929293D
:1038F0001F29292929292929162929292929292955
:103900000D000298072804D3FFE701208DF80F006F
:10391000FFE716E00298082804D3FFE701208DF89E
:103920000F00FFE70DE00298102804D3FFE7012005
:103930008DF80F00FFE704E003E001208DF80F0091
:10394000FFE7FFE79DF80F0078B9FFE705980699B4
:103950000968486106980068806820F0180004999A
:103960000843069909688860FFE79DF80F0007B0D3
:103970007047000080B582B00090009820B9FFE742
:1039800001208DF8070057E00098407F38B9FFE725
:10399000009900200877009800F052F8FFE700999E
:1039A000022048770098007980B9FFE70098016805
:1039B00041F6B750C0F2C140486100980068806885
:1039C00020F018000099096888600BE00098816871
:1039D000C268FFF759FF20B1FFE701208DF807000B
:1039E0002AE0FFE70098407930B9FFE700980168C6
:1039F0004FF0FF30086104E0009801680069086139
:103A0000FFE700980068806820F06000009A116865
:103A100052691043886000980068806820F0800038
:103A2000009A1168926910438860009901204877D4
:103A300000208DF80700FFE79DF8070002B080BD69
:103A400082B001900198006843F20001C4F20201C3
:103A5000884210D1FFE7FFE740F68840C4F20240F9
:103A6000016841F480510160006800F480500090CA
:103A70000098FFE7FFE702B07047000080B584B010
:103A8000029001F029FE0190029820B9FFE7012081
:103A90008DF80F0079E0029890F8540002280DD0BC
:103AA000FFE7029920208865FFE70299002081F84E
:103AB0004C00FFE701208DF80F0066E002980168D6
:103AC000486940F0040048610299052081F85400DB
:103AD000FFE70298006800698004002827D4FFE708
:103AE00001F0FAFD0199401A06281FD3FFE7029959
:103AF000886D40F0100088650299032081F8540019
:103B0000029890F850000006002805D5FFE70298BB
:103B1000416F01200873FFE7FFE70299002081F859
:103B20004C00FFE701208DF80F002EE0D1E702984E
:103B30000168486940F0020048610299042081F858
:103B40005400029801684FF4FE40C86002990120B9
:103B500081F85400029890F850000006002809D51A
:103B6000FFE70298416F0120087302980168002066
:103B70008864FFE7FFE70299002081F84C00FFE727
:103B8000FFE700208DF80F00FFE79DF80F0004B05D
:103B900080BD000082B00090009820B9FFE70120AE
:103BA0008DF807001CE0009890F85400022807D018
:103BB000FFE700992020886501208DF807000FE0BD
:103BC0000099042081F8540000980168486942F285
:103BD000040210434861FFE700208DF80700FFE76B
:103BE0009DF8070002B0704785B0039002910398DA
:103BF00020B9FFE701208DF813002AE00398006840
:103C000040F6FF7188430190039800685038C0F374
:103C1000C4110120884000909DF80800C0060028CB
:103C200013D5FFE7029800F01100112806D1FFE735
:103C3000009A019948681043486005E0009A01998C
:103C4000486890434860FFE7FFE700208DF81300C5
:103C5000FFE79DF8130005B07047000080B584B001
:103C600003900398006840F6FF7188430290039820
:103C700000685038C0F3C4110120884001900298B8
:103C8000C068019908400090009808B9FFE74DE12D
:103C90000398006800694005002813D5FFE70398E2
:103CA00000684069400500280BD5FFE703980168CC
:103CB0004FF48060C8600399886D40F0010088650A
:103CC000FFE7FFE70398006800690005002813D5A7
:103CD000FFE7039800684069000500280BD5FFE75F
:103CE000039801684FF40060C8600399886D40F044
:103CF00002008865FFE7FFE7039800680069C004D9
:103D0000002813D5FFE7039800684069C004002825
:103D10000BD5FFE7039801684FF48050C860039902
:103D2000886D40F004008865FFE7FFE703980068AE
:103D300000694004002813D5FFE703980068406934
:103D4000400400280BD5FFE7039801684FF480403A
:103D5000C8600399886D40F008008865FFE7FFE7B9
:103D60000398006800698005002816D5FFE70398CE
:103D700000684069800500280ED5FFE703980168B8
:103D80004FF40070C8600398406E20B1FFE70398BD
:103D9000416E8847FFE7FFE7FFE703980068006987
:103DA0008004002850D5FFE703980068406980042C
:103DB000002848D5FFE7039801684FF40050C86019
:103DC000039890F8540004282FD1FFE70398016866
:103DD000486920F40050486103980168486940F040
:103DE000020048610399012081F85400039890F87B
:103DF00050000006002809D5FFE70398416F012015
:103E000008730398016800208864FFE7FFE70399BF
:103E1000002081F84C00FFE70398C06E20B1FFE757
:103E20000398C16E8847FFE780E00399052081F879
:103E300054000398006F20B1FFE70398016F884793
:103E4000FFE7FFE7FFE7FFE7039800680069C005A9
:103E5000002842D5FFE7039800684069C0050028A4
:103E60003AD5FFE7039890F850000006002814D5D3
:103E7000FFE703980068C06F70B9FFE70398006818
:103E8000806C40B9FFE70399012081F85400039941
:103E9000496F0873FFE7FFE70AE003980068806C4A
:103EA00028B9FFE70399012081F85400FFE7FFE7F5
:103EB000039801684FF44070C860FFE70399002041
:103EC00081F84C00FFE70398006E20B1FFE70398EC
:103ED000016E8847FFE7FFE7FFE70398806D28B38F
:103EE000FFE703980168486940F0020048610399C0
:103EF000012081F85400039890F850000006002833
:103F000005D5FFE70398416F01200873FFE7FFE73E
:103F10000399002081F84C00FFE70398806E20B1E0
:103F2000FFE70398816E8847FFE7FFE704B080BD95
:103F300080B584B0029001F0CFFB0190029820B9C7
:103F4000FFE701208DF80F00CEE10298C068B0F5C0
:103F5000007F01D0FFE7FFE70298406BB0F5805F7C
:103F600001D1FFE7FFE70298016801205022C4F267
:103F700002029142009000F06781FFE70298016819
:103F800001205022C5F202029142009000F05C81B3
:103F9000FFE7029801680120D022C4F20202914298
:103FA000009000F05181FFE7029801680120D022C3
:103FB000C5F202029142009000F04681FFE70298AC
:103FC0000168012040F25012C4F2020291420090B6
:103FD00000F03A81FFE702980168012040F2501298
:103FE000C5F202029142009000F02E81FFE7029894
:103FF0000168012040F2D012C4F202029142009006
:1040000000F02281FFE702980168012040F2D012FF
:10401000C5F202029142009000F01681FFE702987B
:104020000168012040F25022C4F202029142009045
:1040300000F00A81FFE702980168012040F2502257
:10404000C5F202029142009000F0FE80FFE7029864
:104050000168012040F2D022C4F202029142009095
:1040600000F0F280FFE702980168012040F2D022C0
:10407000C5F202029142009000F0E680FFE702984C
:104080000168012040F25032C4F2020291420090D5
:1040900000F0DA80FFE702980168012040F2503218
:1040A000C5F202029142009000F0CE80FFE7029834
:1040B0000168012040F2D032C4F202029142009025
:1040C00000F0C280FFE702980168012040F2D03280
:1040D000C5F202029142009000F0B680FFE702981C
:1040E0000168012041F25002C4F2020291420090A4
:1040F00000F0AA80FFE702980168012041F2500217
:10410000C5F202029142009000F09E80FFE7029803
:104110000168012041F2D002C4F2020291420090F3
:1041200000F09280FFE702980168012041F2D0027E
:10413000C5F202029142009000F08680FFE70298EB
:104140000168012041F25012C4F202029142009033
:104150007AD0FFE702980168012041F25012C5F2BF
:104160000202914200906FD0FFE70298016801209F
:1041700041F2D012C4F202029142009064D0FFE7F3
:1041800002980168012041F2D012C5F20202914268
:10419000009059D0FFE702980168012041F25022B7
:1041A000C4F20202914200904ED0FFE702980168EB
:1041B000012041F25022C5F202029142009043D008
:1041C000FFE702980168012041F2D022C4F2020206
:1041D0009142009038D0FFE702980168012041F237
:1041E000D022C5F20202914200902DD0FFE7029842
:1041F0000168012041F25032C4F202029142009063
:1042000022D0FFE702980168012041F25032C5F246
:1042100002029142009017D0FFE702980168012046
:1042200041F2D032C4F20202914200900CD0FFE77A
:10423000029800684EF63041CAF6FD710844B0FAA3
:1042400080F040090090FFE70098C00708B1FFE741
:10425000FFE7FFE70299002081F84C00FFE7029892
:1042600090F8540060B9FFE70299002008660299AF
:104270004866029988660299C86602990867FFE74E
:104280000299022081F8540002980168486940F0C0
:1042900006004861FFE7029800684069C00798B1CE
:1042A000FFE701F019FA0199401A06280BD3FFE73E
:1042B0000299102088650299032081F8540001209A
:1042C0008DF80F0010E0E6E70298FCF741FB029939
:1042D000486B0865029900208865029A012182F8DE
:1042E00054108DF80F00FFE79DF80F0004B080BD5B
:1042F00080B584B0039001F0EFF90290039801902B
:104300000198013048B1FFE740F20440C2F20000DA
:104310000178019808440190FFE7FFE701F0DCF91C
:104320000299401A0199884201D2FFE7F6E704B0EA
:1043300080BD000086B0049003910292049890F82A
:104340005C008DF80700BDF80C0010F4C07F01D0B0
:10435000FFE7FFE79DF80700012806D0FFE79DF87B
:104360000700022840F0DE80FFE704980068806DB7
:1043700000909DF80C00400730B1FFE79DF8000069
:10438000C007002847D0FFE79DF80C0010F0380F59
:1043900006D0FFE79DF80000800700283BD5FFE727
:1043A000BDF80C0010F4E07F06D0FFE79DF8000098
:1043B000400700282FD5FFE79DF80D0010F01E0FD5
:1043C00006D0FFE79DF800000007002823D5FFE78F
:1043D0009DF80D0010F0E00F06D0FFE79DF80000FB
:1043E000C006002817D5FFE79DF80E00800730B102
:1043F000FFE79DF80000800600280CD5FFE79DF838
:104400000E0010F0FC0F0DD0FFE79DF800004006F5
:10441000002807D4FFE704980168C86D40F0010048
:10442000C865FFE79DF80C00400730B1FFE79DF835
:104430000000C007002847D1FFE79DF80C0010F0EE
:10444000380F06D0FFE79DF80000800700283BD416
:10445000FFE7BDF80C0010F4E07F06D0FFE79DF801
:104460000000400700282FD4FFE79DF80D0010F052
:104470001E0F06D0FFE79DF800000007002823D498
:10448000FFE79DF80D0010F0E00F06D0FFE79DF864
:104490000000C006002817D4FFE79DF80E00800733
:1044A00030B1FFE79DF80000800600280CD4FFE73C
:1044B0009DF80E0010F0FC0F0DD0FFE79DF80000F6
:1044C0004006002807D5FFE704980168C86D40F052
:1044D0000200C865FFE79DF80C000006002809D51A
:1044E000FFE7029A04980168D1F8DC001043C1F894
:1044F000DC00FFE79DF80D00C00748B1FFE7029A16
:1045000004980168D1F8E0001043C1F8E000FFE72B
:10451000039A04980168486D1043486500208DF89F
:10452000170008E00499086E40F0020008660120B8
:104530008DF81700FFE79DF8170006B070470000E0
:1045400080B586B00490039102920398406808B940
:10455000FFE700E0FFE7049890F85C0002282FD105
:10456000FFE704980068D0F8C4008002002809D54D
:10457000FFE70499086E40F40070086601208DF88A
:10458000170026E004980068D0F8C400C0F301408A
:10459000019004980399029A019BFEF779FA019918
:1045A000012000FA01F1049A1268C2F8CC100199B6
:1045B000884004998865FFE700208DF8170008E01F
:1045C0000499086E40F00800086601208DF8170075
:1045D000FFE79DF8170006B080BD000087B005908A
:1045E0000491059890F85C008DF803009DF8030095
:1045F000012805D0FFE79DF8030002283CD1FFE722
:1046000004980068B8B9FFE704998868CB680A691C
:104610004969800740EAC36040EA024008430390CA
:104620000598006C0499496800EB8100019003989B
:10463000019908601CE00498C168006940EA417073
:10464000039004988168406940EA8170029005985F
:10465000406C0499496800EBC100019003980199EE
:104660000860019804300190029801990860FFE702
:1046700000208DF81B0008E00599086E40F002004C
:10468000086601208DF81B00FFE79DF81B0007B0AE
:104690007047000085B0DDF814C0039002910192CC
:1046A0000093039890F85C00012819D1FFE7039864
:1046B0000068D0F8800020F03F0002990901019ABB
:1046C00041EA8201009A41EA4201059A11430843F6
:1046D00003990968C1F8800000208DF8130008E0F4
:1046E0000399086E40F00400086601208DF813005D
:1046F000FFE79DF8130005B07047000085B00390F8
:1047000002910192039890F85C008DF803009DF8E7
:104710000300012805D0FFE79DF80300022816D109
:10472000FFE70198012807D1FFE7029A0398016883
:10473000886D9043886506E0029A03980168886D49
:1047400010438865FFE700208DF8130008E0039907
:10475000086E40F00200086601208DF81300FFE7A4
:104760009DF8130005B0704781B0009001B070470C
:1047700082B001900091019840F6F001C2F2000170
:1047800088420DD1FFE79DF802000007002807D5F9
:10479000FFE740F61461C2F2000101200870FFE754
:1047A00002B0704783B00290019102980068406C9B
:1047B0000090009800F00700019908600098C0F38D
:1047C000022001994860009800F018000199886063
:1047D0000098C0F340100199C8600098C0F38010A1
:1047E000019908619DF80000C0090199486100988D
:1047F000C0F3C020019988610098C0F3003001998E
:10480000C8610098C0F34030019908620098C0F375
:104810008030019948620098C0F30640019988628F
:10482000002003B07047000083B00290019101980E
:10483000402808D1FFE702980068D0F8900000F007
:104840000F00009007E002980068D0F8980000F090
:104850000F000090FFE7009803B070478AB00890FF
:1048600007910692059300200190089890F85C004B
:104870008DF803009DF80300022840F0FA80FFE75E
:10488000079840283ED1FFE708980068D0F89000CC
:10489000000748B9FFE70899086E40F48070086681
:1048A00001208DF82700EDE008980068D0F890000E
:1048B00000F080710120B0EB116F0FD1FFE7089875
:1048C0000068D0F8800000F400710120B0EB512F97
:1048D00003D1FFE701200190FFE7FFE70898006898
:1048E000D0F8900000F44071019800EB1120019085
:1048F0000898806C019901EBC10100EBC1000490A4
:10490000FFE73DE008980068D0F89800000748B934
:10491000FFE70899086E40F48070086601208DF862
:104920002700AFE008980068D0F8980000F0807188
:104930000120B0EB116F0FD1FFE708980068D0F8A5
:10494000800000F480710120B0EB112F03D1FFE74C
:1049500001200190FFE7FFE708980068D0F8980071
:1049600000F44071019800EB112001900898C06C90
:10497000019901EBC10100EBC1000490FFE7FFE7E3
:104980000498006800F080400699486006984068E6
:1049900038B9FFE704980068C0F38A4006990860B8
:1049A00006E00498006820F0604006990860FFE780
:1049B0000498006800F00050069988600498006828
:1049C00000F00040069908610498043004900498AF
:1049D00000880699C86104980068C0F303400699EE
:1049E000C8600498006800F4801006994861049833
:1049F000006800F400100699886104980068C0F30C
:104A000006600699086204980068C00F069948621B
:104A10000498043004900498039000200290FFE76B
:104A200002980699CA6846F26021C0F60101895CC5
:104A300088420AD2FFE70398029A805C059988545D
:104A4000FFE7029801300290EAE70798402806D174
:104A5000FFE7019808990968C1F8940005E00198FA
:104A600008990968C1F89C00FFE700208DF827002D
:104A700008E00899086E40F00800086601208DF8EB
:104A80002700FFE79DF827000AB0704781B000902B
:104A900001B0704780B58AB0099009980068006D30
:104AA00000F4E050089009980068416D08980840AB
:104AB000089009980068006D00F0070007900998B9
:104AC0000068416D07980840079009980068006DDC
:104AD00000F03800069009980068416D069808407B
:104AE000069009980068006D00F47100059009981F
:104AF0000068416D05980840059009980068006DB0
:104B000000F46020049009980068416D0498084002
:104B1000049009980068406D019009980068006D44
:104B200000909DF8000000F040010020B0EB911FC4
:104B300012D0FFE79DF8040000F040010020B0EB28
:104B4000911F08D0FFE7099801684020086509987F
:104B5000FFF79CFFFFE7FFE79DF80100C007E0B10A
:104B6000FFE79DF80500C007B0B1FFE709980068AE
:104B7000D0F8D800029009980068D0F8E0100298A8
:104B800008400290099801684FF480700865099800
:104B9000029900F09DFBFFE7FFE7089848B1FFE7A7
:104BA00008980999096808650998089900F09CFB1C
:104BB000FFE7079848B1FFE7079809990968086572
:104BC0000998079900F0D0FAFFE7069848B1FFE787
:104BD00006980999096808650998069900F0D6FAB7
:104BE000FFE79DF8010000F002010020B0EB510F3B
:104BF00013D0FFE79DF8050000F002010020B0EBA4
:104C0000510F09D0FFE7099801684FF4007008655B
:104C1000099800F06FFBFFE7FFE79DF80010002008
:104C2000B0EBD11F1DD0FFE79DF804100020B0EBC2
:104C3000D11F15D0FFE709980068D0F8D400039081
:104C400009980068D0F8DC10039808400390099890
:104C50000168802008650998039900F03FFBFFE791
:104C6000FFE79DF8010000F020010020B0EB511F8C
:104C700013D0FFE79DF8050000F020010020B0EB05
:104C8000511F09D0FFE7099801684FF400500865EB
:104C9000099800F019FBFFE7FFE79DF801100020DD
:104CA000B0EBD11F11D0FFE79DF805100020B0EB4D
:104CB000D11F09D0FFE7099801684FF4004008654B
:104CC000099800F0FDFAFFE7FFE79DF8010000F00A
:104CD00040010020B0EB911F15D0FFE79DF80500C3
:104CE00000F040010020B0EB911F0BD0FFE70998C6
:104CF00001684FF4804008650999086E40F0800013
:104D00000866FFE7FFE7049848B1FFE704980999B0
:104D10000968086509980499FFF72AFDFFE70598D7
:104D200050B1FFE70598099909680865059A09993E
:104D3000086E10430866FFE70998006E20B1FFE790
:104D40000998FFF711FDFFE70AB080BD80B584B078
:104D50000290029820B9FFE701208DF80F0057E17B
:104D6000029800684AF20041C4F20001884201D171
:104D7000FFE7FFE702988068B0F5407F01D1FFE7C9
:104D8000FFE7029890F85C0040B9FFE70299002025
:104D900081F85D00029800F03FF9FFE70298016892
:104DA000886920F01000886100F096FC0190FFE710
:104DB0000298006880690007002815D5FFE700F019
:104DC0008BFC0199401A0B280DD3FFE70299086E5E
:104DD00040F0010008660299032081F85C00012080
:104DE0008DF80F0014E1E3E702980168886940F04C
:104DF0000100886100F070FC0190FFE702980068F4
:104E00008069C007A8B9FFE700F066FC0199401A65
:104E10000B280DD3FFE70299086E40F001000866E9
:104E20000299032081F85C0001208DF80F00EFE06B
:104E3000E4E702980168886940F0020088610298FE
:104E400000684AF20041C4F20001884208D1FFE73D
:104E5000029840684AF20051C4F200010860FFE77E
:104E60000298007C012807D1FFE702980168886951
:104E700020F04000886106E002980168886940F0EF
:104E800040008861FFE70298407C012807D1FFE7D6
:104E900002980168886940F48040886106E00298C1
:104EA0000168886920F480408861FFE70298807C6F
:104EB000012807D1FFE702980168886920F4805033
:104EC000886106E002980168886940F48050886132
:104ED000FFE702980068806920F44070029A116828
:104EE00092681043886102980168886920F0A400E4
:104EF000886102980168086920F010000861029832
:104F0000C068012807D1FFE702980168886940F06E
:104F1000040088612BE00298C06830B3FFE7029874
:104F2000C068022819D0FFE702980168886940F03C
:104F30008000886102980168086940F010000861EB
:104F40000298C068032807D1FFE7029801688869C2
:104F500040F020008861FFE706E002980168886958
:104F600040F020008861FFE700E0FFE7FFE7029ADA
:104F7000116853699069D2F81CE0A0F1010C6FF040
:104F8000FF0000EB0E2040EA4C60126A013A104329
:104F90000022CFF6FF7202EB03421043C861029871
:104FA0008068B0F5407F1CD1FFE7029A1168536A10
:104FB000906AD2F82CE001386FF0FF0C0CEB0E2C4D
:104FC00040EA0C00D2F830C06FF00F0202EB0C1276
:104FD00010430022CFF6FF7202EB03421043C86079
:104FE000FFE702980168C26BD1F8C0001043C1F816
:104FF000C0000298FDF7EEFC029900208865029936
:105000000866029A012182F85C108DF80F00FFE714
:105010009DF80F0004B080BD80B58EB00D900020CB
:105020000C900B900A90099008900D9800684AF235
:105030000041C4F2000188424ED1FFE740F27840BF
:10504000C2F200000168013101600068012810D13E
:10505000FFE7FFE740F6A040C4F20240016841F4D8
:1050600000710160006800F4007007900798FFE786
:10507000FFE7FFE740F68C40C4F20240016841F0D0
:1050800001010160006800F0010006900698FFE74A
:105090004FF4C050089002200990002102910A911B
:1050A0000B9009200C900020C4F2022008A900F007
:1050B0006FF9029A27200190114600F015FC019823
:1050C00000F008FC029A28200390114600F00CFC26
:1050D000039800F0FFFB44E00D9800684AF60001D9
:1050E000C4F2000188423BD1FFE740F27840C2F2AF
:1050F00000000168013101600068012810D1FFE75C
:10510000FFE740F6A040C4F20240016841F400719C
:105110000160006800F4007005900598FFE7FFE764
:10512000FFE740F68C40C4F20240016841F0020102
:105130000160006800F0020004900498FFE760201E
:1051400008900220099000200A900B9009200C90F2
:1051500040F20040C4F2022008A900F019F9FFE76C
:10516000FFE70EB080BD000080B582B001900091D5
:10517000019800684AF20041C4F20001884203D15C
:10518000FFE70DF005FDFFE702B080BD82B00190A2
:10519000009102B07047000082B00090009890F833
:1051A0005C00012810D1FFE70099022081F85C0023
:1051B00000980168886920F001008861009900204A
:1051C00008668DF8070008E00099086E40F00400BA
:1051D000086601208DF80700FFE79DF8070002B080
:1051E0007047000083B0019000200090019890F873
:1051F0005C00022857D1FFE701980168886940F0F8
:1052000001008861FFE7019800688069C007A8B9BC
:10521000FFE700980B280DD3FFE70199086E40F0D7
:10522000010008660199032081F85C0001208DF8D7
:105230000B0041E0009801300090E4E7002000906E
:1052400001980168886920F010008861FFE70198E3
:10525000006880690007002815D5FFE700980B2833
:105260000DD3FFE70199086E40F00100086601992F
:10527000032081F85C0001208DF80B001CE00098F1
:1052800001300090E3E701980168886940F002006E
:105290008861019900208865019A012182F85C10DB
:1052A0008DF80B0008E00199086E40F008000866D0
:1052B00001208DF80B00FFE79DF80B0003B070474D
:1052C00081B0009001B0704781B0009001B070478C
:1052D00082B00190009102B07047000082B001904E
:1052E000009102B07047000082B00190009102B0BE
:1052F0007047000081B0009001B0704781B0ADF8F8
:105300000200BDF80200102807D1FFE740F24A7101
:10531000C2F2000101200870FFE701B070470000F1
:1053200080B582B0ADF8060042F20C00C4F2024033
:105330000068BDF8061008420CD0FFE7BDF8060073
:1053400042F20C01C4F202410860BDF8060000F010
:1053500019F8FFE742F21000C4F202400068BDF8FD
:10536000061008420CD0FFE7BDF8060042F210011B
:10537000C4F202410860BDF80600FFF7BFFFFFE777
:1053800002B080BD81B0ADF8020001B070470000EE
:1053900085B00490039100200090FFE70398006817
:1053A0000099C840002800F06681FFE70398006874
:1053B000009A01219140084001900198002800F0D6
:1053C0005681FFE703984068022805D0FFE703985D
:1053D0004068122828D1FFE7049800996FF0030273
:1053E00002EA51010844006A0290009800F00700A8
:1053F00081000F2000FA01F102988843029003987F
:10540000006900F00F00009901F00701890000FA1F
:1054100001F102980843029002980499009B02EA65
:10542000530211440862FFE7049800680290009854
:105430004100032000FA01F102988843029003988A
:10544000406800F003000099490000FA01F1029859
:105450000843029002980499086003984068012864
:105460000FD0FFE70398406802280AD0FFE70398AF
:105470004068112805D0FFE70398406812282FD113
:10548000FFE704988068029000984100032000FA2A
:1054900001F10298884302900398C068009949007E
:1054A00000FA01F10298084302900298049988607A
:1054B0000498406802900099012000FA01F10298D6
:1054C0008843029003984068C0F30010009900FAE6
:1054D00001F1029808430290029804994860FFE79E
:1054E0000398406800F0030003280CD1FFE70398FD
:1054F000406800F0030003281DD1FFE7039880688F
:10550000012818D0FFE70498C06802900098410075
:10551000032000FA01F10298884302900398806802
:105520000099490000FA01F102980843029002989C
:105530000499C860FFE70398C079C006002840F1CD
:105540009580FFE7009820F0030042F26002C4F269
:10555000024280580290009800F00300C1000F2022
:1055600000FA01F102988843029004984FF6004136
:10557000CBF6FD510840800A009901F00301C900F3
:1055800000FA01F10298084302900298009921F074
:105590000301885042F20000C4F202400068029009
:1055A000019902988843029003988079C0060028E8
:1055B00005D5FFE70199029808430290FFE702989A
:1055C00042F20001C4F20241086042F20400C4F257
:1055D0000240006802900199029888430290039863
:1055E00080798006002805D5FFE7019902980843D5
:1055F0000290FFE7029842F20401C4F202410860FF
:1056000042F28400C4F202400068029001990298BC
:1056100088430290039880798007002805D5FFE72A
:105620000199029808430290FFE7029842F2840130
:10563000C4F20241086042F28000C4F202400068F5
:105640000290019902988843029003988079C007DC
:1056500028B1FFE70199029808430290FFE70298FA
:1056600042F28001C4F202410860FFE7FFE70098C0
:105670000130009092E605B07047000082B00190C2
:10568000ADF8021001980069BDF80210084204D07C
:10569000FFE701208DF8010003E000208DF80100F4
:1056A000FFE79DF8010002B07047000082B0019052
:1056B000ADF802108DF801209DF8010028B1FFE738
:1056C000BDF802000199886104E0BDF8020001996B
:1056D0008862FFE702B0704740F6EC60C2F200005B
:1056E0000068704782B0019000208DF8030040F2FE
:1056F0000040C4F203000068C00720B1FFE70120AA
:105700008DF803000AE040F20041C4F2030108688A
:1057100020F00400019A10430860FFE79DF80300A1
:1057200002B0704740F20041C4F20301086840F043
:10573000010008600020704740F20440C2F20000FF
:10574000027840F6EC61C2F200010868104408607B
:105750007047000080B582B0032000F0DDF805F04E
:105760009BF940F62041C4F20241096801F00F02A2
:1057700046F24821C0F60101895CC84040F21C0194
:10578000C2F200010860042007F024FC002000F0B1
:1057900011F820B1FFE701208DF8070005E000F0C7
:1057A00093F800208DF80700FFE79DF8070002B08E
:1057B00080BD000080B586B004900020039040F2C8
:1057C0000440C2F20000007820B9FFE701208DF804
:1057D000170075E04EF21000CEF20000006840079E
:1057E000002812D5FFE740F21C00C2F2000000685A
:1057F00040F20441C2F200010A784FF47A71B1FB21
:10580000F2F1B0FBF1F0039040E007F057FC02909A
:105810000298019040B1FFE70198012816D0FFE7F8
:105820000198022821D02FE040F21C00C2F20000B3
:10583000006840F20441C2F200010A784FF4FA51C4
:10584000B1FBF2F1B0FBF1F003901EE040F2044036
:10585000C2F2000001784FF47A70B0FBF1F14FF41E
:10586000FA40B0FBF1F003900FE040F20440C2F2C6
:10587000000001784FF47A70B0FBF1F14FF4004072
:10588000B0FBF1F0039000E0FFE7FFE7039807F0BB
:10589000EFFB20B1FFE701208DF8170010E004991D
:1058A0004FF0FF300022009200F01EF8009804999B
:1058B00040F20842C2F2000211608DF81700FFE7C3
:1058C0009DF8170006B080BD80B5052000F024F8D3
:1058D00080BD000080B582B0ADF80600BDF90600BD
:1058E0000CF0DCFD02B080BD80B586B0ADF81600CE
:1058F000049103920CF0EAFD0290BDF916000190AC
:1059000002980499039A0AF057FB014601980CF09B
:10591000E5FD06B080BD000080B582B00190019821
:105920000CF0FEFD02B080BD81B0009000996FF0D8
:10593000FF0060EA010240F64801C4F20241086833
:105940001040086001B0704792B009904FF44030A9
:1059500006900999086804904968059190FAA0F0AA
:105960001090109820B9FFE720208DF8470005E03F
:105970001098B0FA80F08DF84700FFE70498059979
:105980009DF84720083202F01F0291400843029020
:10599000099908688968039190FAA0F00E900E9812
:1059A00020B9FFE720208DF83F0005E00E98B0FAFF
:1059B00080F08DF83F00FFE7029803999DF83F3093
:1059C000102202EB430202F01E02914008430890AD
:1059D00009980068019090FAA0F00C900C9820B9FA
:1059E000FFE720208DF8370005E00C98B0FA80F032
:1059F0008DF83700FFE701989DF8371001F01F027E
:105A00004FF480719140084300900998006890FA23
:105A1000A0F00A900A9820B9FFE720208DF82F0007
:105A200005E00A98B0FA80F08DF82F00FFE70098A3
:105A30009DF82F201E2101EA42024FF4403191408F
:105A40000843079040F64801C4F202410868079AEB
:105A50009043089A1043086012B0704740F6000166
:105A6000C4F20241086840F0010008604EF610518F
:105A7000CEF20001086840F004000860BFF34F8FC9
:105A8000BFF36F8F30BF704789B0089040F6344045
:105A9000C4F2024000686FF35F20059040F6284092
:105AA000C4F20240016801F0030107910168C1F3EB
:105AB000052106910068C0F300100490049840F698
:105AC0003841C4F20241096889B2C90800FB01F0FB
:105AD00000EE100AB8EE400A8DED020A0698002882
